{
  "contractName": "Factory",
  "abi": [
    {
      "constant": false,
      "inputs": [],
      "name": "createProposal",
      "outputs": [
        {
          "name": "proposalAddress",
          "type": "address"
        }
      ],
      "payable": false,
      "stateMutability": "nonpayable",
      "type": "function"
    }
  ],
  "bytecode": "0x608060405234801561001057600080fd5b50610156806100206000396000f300608060405260043610610041576000357c0100000000000000000000000000000000000000000000000000000000900463ffffffff168063180fd87f14610046575b600080fd5b34801561005257600080fd5b5061005b61009d565b604051808273ffffffffffffffffffffffffffffffffffffffff1673ffffffffffffffffffffffffffffffffffffffff16815260200191505060405180910390f35b60006100a76100c9565b604051809103906000f0801580156100c3573d6000803e3d6000fd5b50905090565b6040516052806100d98339019056006080604052348015600f57600080fd5b50603580601d6000396000f3006080604052600080fd00a165627a7a7230582038d8886d937270634b47672c885a44addce01bddf01dde8ff568410f4b55d3720029a165627a7a72305820965e9f92418739f6ddef70edb70b18c2fef3f87e6b4216e1bcd90f6bda7c86060029",
  "source": "pragma solidity ^0.4.24;\n\nimport \"./Interface.sol\";\n\ncontract Factory is FactoryInterface {\n  \n  function createProposal() public returns (address proposalAddress){\n    proposalAddress = address(new WorkProposalOne());\n  }\n  \n}\n\ncontract WorkProposalOne {\n  \n}",
  "sourcePath": "/Users/josh/Projects/Node/semada-demo/contracts/Factory.sol",
  "compiler": {
    "name": "solc",
    "version": "0.4.24+commit.e67f0147.Emscripten.clang"
  },
  "schemaVersion": "2.0.1",
  "updatedAt": "2018-11-05T17:49:44.566Z"
}