{
  "contractName": "SafeMath",
  "abi": [
    {
      "constant": true,
      "inputs": [
        {
          "name": "a",
          "type": "uint256"
        },
        {
          "name": "b",
          "type": "uint256"
        }
      ],
      "name": "safeAdd",
      "outputs": [
        {
          "name": "c",
          "type": "uint256"
        }
      ],
      "payable": false,
      "stateMutability": "pure",
      "type": "function"
    },
    {
      "constant": true,
      "inputs": [
        {
          "name": "a",
          "type": "uint256"
        },
        {
          "name": "b",
          "type": "uint256"
        }
      ],
      "name": "safeSub",
      "outputs": [
        {
          "name": "c",
          "type": "uint256"
        }
      ],
      "payable": false,
      "stateMutability": "pure",
      "type": "function"
    },
    {
      "constant": true,
      "inputs": [
        {
          "name": "a",
          "type": "uint256"
        },
        {
          "name": "b",
          "type": "uint256"
        }
      ],
      "name": "safeMul",
      "outputs": [
        {
          "name": "c",
          "type": "uint256"
        }
      ],
      "payable": false,
      "stateMutability": "pure",
      "type": "function"
    },
    {
      "constant": true,
      "inputs": [
        {
          "name": "a",
          "type": "uint256"
        },
        {
          "name": "b",
          "type": "uint256"
        }
      ],
      "name": "safeDiv",
      "outputs": [
        {
          "name": "c",
          "type": "uint256"
        }
      ],
      "payable": false,
      "stateMutability": "pure",
      "type": "function"
    },
    {
      "constant": false,
      "inputs": [
        {
          "name": "a",
          "type": "uint256"
        },
        {
          "name": "b",
          "type": "uint256"
        },
        {
          "name": "c",
          "type": "uint256"
        },
        {
          "name": "precision",
          "type": "uint256"
        }
      ],
      "name": "safePercentageOf",
      "outputs": [
        {
          "name": "q",
          "type": "uint256"
        }
      ],
      "payable": false,
      "stateMutability": "nonpayable",
      "type": "function"
    }
  ],
  "bytecode": "0x608060405234801561001057600080fd5b5061030a806100206000396000f30060806040526004361061006d576000357c0100000000000000000000000000000000000000000000000000000000900463ffffffff16806337e9c7fa14610072578063a293d1e8146100d1578063b5931f7c1461011c578063d05c78da14610167578063e6cb9013146101b2575b600080fd5b34801561007e57600080fd5b506100bb600480360381019080803590602001909291908035906020019092919080359060200190929190803590602001909291905050506101fd565b6040518082815260200191505060405180910390f35b3480156100dd57600080fd5b506101066004803603810190808035906020019092919080359060200190929190505050610251565b6040518082815260200191505060405180910390f35b34801561012857600080fd5b50610151600480360381019080803590602001909291908035906020019092919050505061026d565b6040518082815260200191505060405180910390f35b34801561017357600080fd5b5061019c6004803603810190808035906020019092919080359060200190929190505050610291565b6040518082815260200191505060405180910390f35b3480156101be57600080fd5b506101e760048036038101908080359060200190929190803590602001909291905050506102c2565b6040518082815260200191505060405180910390f35b60008060008060008611151561021257600080fd5b8685600a0a890281151561022257fe5b04925084600a0a8602915060028502600a0a90508082840281151561024357fe5b049350505050949350505050565b600082821115151561026257600080fd5b818303905092915050565b6000808211151561027d57600080fd5b818381151561028857fe5b04905092915050565b6000818302905060008314806102b157508183828115156102ae57fe5b04145b15156102bc57600080fd5b92915050565b600081830190508281101515156102d857600080fd5b929150505600a165627a7a72305820d2be0a9975f4e9d9868a6fd6072e93b21aeff0321d5a1952d5d8b4e6c663e4a40029",
  "source": "pragma solidity ^0.4.24;\n\ncontract SafeMath {\n    \n  \n    function safeAdd(uint a, uint b) public pure returns (uint c) {\n        c = a + b;\n        require(c >= a);\n    }\n    function safeSub(uint a, uint b) public pure returns (uint c) {\n        require(b <= a);\n        c = a - b;\n    }\n    function safeMul(uint a, uint b) public pure returns (uint c) {\n        c = a * b;\n        require(a == 0 || c / a == b);\n    }\n    function safeDiv(uint a, uint b) \n    public pure returns (uint c) {\n        require(b > 0);\n        \n        c = a / b;\n    }\n    \n    function safePercentageOf(uint a, uint b, uint c, uint precision)\n    public returns (uint q) {\n      require(c > 0);\n      \n      /* emit SafeMessage(\"1\", a, b, c, precision); */\n      //example: (4*(10^2)/8)*(14*(10^2))/(10^4) = 7;\n      /* a=5\n      b=15\n      c=20\n      precision=2\n      \n      (5*(10**2)/15) = 33\n      \n      (20*(10**2)) = 2000\n      \n      (10**(2*2)) = 10000 */\n      uint p1 = a*(10**precision)/b;\n      \n      uint p2 = c*(10**precision);\n      \n      uint p3 = 10**(precision*2);\n      \n      /* emit SafeMessage(\"2\", p1, p2, p3, 0); */\n      \n      q = p1 * p2 / p3;\n      /* q = (a*(10**precision)/b) * (c*(10**precision)) / (10**(precision*2)); */\n    }\n}",
  "sourcePath": "/Users/josh/Projects/Node/semada-demo/contracts/SafeMath.sol",
  "compiler": {
    "name": "solc",
    "version": "0.4.24+commit.e67f0147.Emscripten.clang"
  },
  "schemaVersion": "2.0.1",
  "updatedAt": "2018-10-21T23:51:12.366Z"
}