{
  "contractName": "SemadaCore",
  "abi": [
    {
      "anonymous": false,
      "inputs": [
        {
          "indexed": false,
          "name": "_address",
          "type": "address"
        }
      ],
      "name": "NewProposalAddress",
      "type": "event"
    },
    {
      "constant": false,
      "inputs": [
        {
          "name": "_factory",
          "type": "address"
        }
      ],
      "name": "createProposal",
      "outputs": [],
      "payable": false,
      "stateMutability": "nonpayable",
      "type": "function"
    }
  ],
  "bytecode": "0x608060405234801561001057600080fd5b506101c4806100206000396000f300608060405260043610610041576000357c0100000000000000000000000000000000000000000000000000000000900463ffffffff16806307eecaf514610046575b600080fd5b34801561005257600080fd5b50610087600480360381019080803573ffffffffffffffffffffffffffffffffffffffff169060200190929190505050610089565b005b6000808291508173ffffffffffffffffffffffffffffffffffffffff1663180fd87f6040518163ffffffff167c0100000000000000000000000000000000000000000000000000000000028152600401602060405180830381600087803b1580156100f357600080fd5b505af1158015610107573d6000803e3d6000fd5b505050506040513d602081101561011d57600080fd5b810190808051906020019092919050505090507fa717bf0fa61c37c06a670bc4e488c86ca0de04fbf1b63a09d87d048a2023f02b81604051808273ffffffffffffffffffffffffffffffffffffffff1673ffffffffffffffffffffffffffffffffffffffff16815260200191505060405180910390a15050505600a165627a7a72305820e1ae58bc5ac07bf7c179108cecff17accc88b3bddb06077b2dbad3908a81ebe20029",
  "source": "pragma solidity ^0.4.24;\n\nimport \"./IProposalFactory.sol\";\n\ncontract SemadaCore {\n  \n  event NewProposalAddress(address _address);\n  \n  function createProposal(address _factory)\n  public {\n    IProposalFactory factory = IProposalFactory(_factory);\n    address _proposal = address(factory.createProposal());\n    emit NewProposalAddress(_proposal);\n  }\n  \n}\n",
  "sourcePath": "/Users/josh/Projects/Node/semada-demo/contracts/semada_core.sol",
  "compiler": {
    "name": "solc",
    "version": "0.4.24+commit.e67f0147.Emscripten.clang"
  },
  "schemaVersion": "2.0.1",
  "updatedAt": "2018-11-05T17:49:44.565Z"
}