{
  "contractName": "SemadaCore",
  "abi": [
    {
      "constant": true,
      "inputs": [],
      "name": "tokenNumberIndex",
      "outputs": [
        {
          "name": "",
          "type": "uint256"
        }
      ],
      "payable": false,
      "stateMutability": "view",
      "type": "function"
    },
    {
      "constant": true,
      "inputs": [
        {
          "name": "a",
          "type": "uint256"
        },
        {
          "name": "b",
          "type": "uint256"
        },
        {
          "name": "c",
          "type": "uint256"
        },
        {
          "name": "precision",
          "type": "uint256"
        }
      ],
      "name": "safePercentageOf",
      "outputs": [
        {
          "name": "q",
          "type": "uint256"
        }
      ],
      "payable": false,
      "stateMutability": "pure",
      "type": "function"
    },
    {
      "constant": true,
      "inputs": [],
      "name": "proposalIndex",
      "outputs": [
        {
          "name": "",
          "type": "uint256"
        }
      ],
      "payable": false,
      "stateMutability": "view",
      "type": "function"
    },
    {
      "constant": true,
      "inputs": [
        {
          "name": "a",
          "type": "uint256"
        },
        {
          "name": "b",
          "type": "uint256"
        }
      ],
      "name": "safeSub",
      "outputs": [
        {
          "name": "c",
          "type": "uint256"
        }
      ],
      "payable": false,
      "stateMutability": "pure",
      "type": "function"
    },
    {
      "constant": true,
      "inputs": [
        {
          "name": "a",
          "type": "uint256"
        },
        {
          "name": "b",
          "type": "uint256"
        }
      ],
      "name": "safeDiv",
      "outputs": [
        {
          "name": "c",
          "type": "uint256"
        }
      ],
      "payable": false,
      "stateMutability": "pure",
      "type": "function"
    },
    {
      "constant": true,
      "inputs": [
        {
          "name": "a",
          "type": "uint256"
        },
        {
          "name": "b",
          "type": "uint256"
        }
      ],
      "name": "safeMul",
      "outputs": [
        {
          "name": "c",
          "type": "uint256"
        }
      ],
      "payable": false,
      "stateMutability": "pure",
      "type": "function"
    },
    {
      "constant": true,
      "inputs": [
        {
          "name": "a",
          "type": "uint256"
        },
        {
          "name": "b",
          "type": "uint256"
        }
      ],
      "name": "safeAdd",
      "outputs": [
        {
          "name": "c",
          "type": "uint256"
        }
      ],
      "payable": false,
      "stateMutability": "pure",
      "type": "function"
    },
    {
      "anonymous": false,
      "inputs": [
        {
          "indexed": false,
          "name": "proposalIndex",
          "type": "uint256"
        },
        {
          "indexed": false,
          "name": "timeout",
          "type": "uint256"
        }
      ],
      "name": "NewProposalCreated",
      "type": "event"
    },
    {
      "anonymous": false,
      "inputs": [
        {
          "indexed": false,
          "name": "tokenNumberIndex",
          "type": "uint256"
        }
      ],
      "name": "NewDaoCreated",
      "type": "event"
    },
    {
      "anonymous": false,
      "inputs": [
        {
          "indexed": false,
          "name": "message",
          "type": "string"
        }
      ],
      "name": "SemadaInfo",
      "type": "event"
    },
    {
      "anonymous": false,
      "inputs": [
        {
          "indexed": false,
          "name": "to",
          "type": "address"
        },
        {
          "indexed": false,
          "name": "value",
          "type": "uint256"
        }
      ],
      "name": "SemDistributed",
      "type": "event"
    },
    {
      "anonymous": false,
      "inputs": [
        {
          "indexed": false,
          "name": "status",
          "type": "string"
        },
        {
          "indexed": false,
          "name": "yesRepStaked",
          "type": "uint256"
        },
        {
          "indexed": false,
          "name": "noRepStaked",
          "type": "uint256"
        }
      ],
      "name": "ProposalStatus",
      "type": "event"
    },
    {
      "constant": true,
      "inputs": [
        {
          "name": "_tokenNumberIndex",
          "type": "uint256"
        }
      ],
      "name": "getTokenAddress",
      "outputs": [
        {
          "name": "tokenAddress",
          "type": "address"
        }
      ],
      "payable": false,
      "stateMutability": "view",
      "type": "function"
    },
    {
      "constant": true,
      "inputs": [
        {
          "name": "_proposalIndex",
          "type": "uint256"
        }
      ],
      "name": "getProposalVotes",
      "outputs": [
        {
          "name": "",
          "type": "uint256"
        },
        {
          "name": "",
          "type": "uint256"
        },
        {
          "name": "",
          "type": "uint256"
        }
      ],
      "payable": false,
      "stateMutability": "view",
      "type": "function"
    },
    {
      "constant": true,
      "inputs": [
        {
          "name": "_proposalIndex",
          "type": "uint256"
        },
        {
          "name": "_voteIndex",
          "type": "uint256"
        }
      ],
      "name": "getVote",
      "outputs": [
        {
          "name": "",
          "type": "address"
        },
        {
          "name": "",
          "type": "uint256"
        },
        {
          "name": "",
          "type": "bool"
        }
      ],
      "payable": false,
      "stateMutability": "view",
      "type": "function"
    },
    {
      "constant": false,
      "inputs": [
        {
          "name": "_tokenNumberIndex",
          "type": "uint256"
        }
      ],
      "name": "joinDao",
      "outputs": [],
      "payable": true,
      "stateMutability": "payable",
      "type": "function"
    },
    {
      "constant": true,
      "inputs": [
        {
          "name": "v",
          "type": "uint256"
        }
      ],
      "name": "uintToBytes",
      "outputs": [
        {
          "name": "ret",
          "type": "bytes32"
        }
      ],
      "payable": false,
      "stateMutability": "pure",
      "type": "function"
    },
    {
      "constant": false,
      "inputs": [
        {
          "name": "_tokenName",
          "type": "string"
        }
      ],
      "name": "createDao",
      "outputs": [],
      "payable": true,
      "stateMutability": "payable",
      "type": "function"
    },
    {
      "constant": false,
      "inputs": [
        {
          "name": "_tokenNumberIndex",
          "type": "uint256"
        },
        {
          "name": "_proposalName",
          "type": "string"
        },
        {
          "name": "_proposalEvidence",
          "type": "string"
        }
      ],
      "name": "newProposal",
      "outputs": [],
      "payable": true,
      "stateMutability": "payable",
      "type": "function"
    },
    {
      "constant": false,
      "inputs": [
        {
          "name": "_proposalIndex",
          "type": "uint256"
        },
        {
          "name": "_vote",
          "type": "bool"
        },
        {
          "name": "_rep",
          "type": "uint256"
        }
      ],
      "name": "vote",
      "outputs": [],
      "payable": false,
      "stateMutability": "nonpayable",
      "type": "function"
    },
    {
      "constant": false,
      "inputs": [
        {
          "name": "_proposalIndex",
          "type": "uint256"
        },
        {
          "name": "_totalRepStaked",
          "type": "uint256"
        },
        {
          "name": "_yesRepStaked",
          "type": "uint256"
        },
        {
          "name": "_noRepStaked",
          "type": "uint256"
        }
      ],
      "name": "distributeRep",
      "outputs": [],
      "payable": false,
      "stateMutability": "nonpayable",
      "type": "function"
    },
    {
      "constant": false,
      "inputs": [
        {
          "name": "_tokenNumberIndex",
          "type": "uint256"
        }
      ],
      "name": "distributeSem",
      "outputs": [],
      "payable": false,
      "stateMutability": "nonpayable",
      "type": "function"
    }
  ],
  "bytecode": "0x608060405234801561001057600080fd5b50613369806100206000396000f30060806040526004361062000103576000357c0100000000000000000000000000000000000000000000000000000000900463ffffffff16806318084fd91462000108578063220df6fc146200012a5780632c57c7ef146200015a57806337e9c7fa146200018857806347c6614014620001ea57806349330cb8146200023c5780635977e0f214620002c857806367ccdf3814620002f657806394e8767d1462000366578063a293d1e814620003b2578063b5931f7c1462000400578063c40b34fc146200044e578063c88a755914620004fc578063d05c78da146200054a578063d46a5d7e1462000598578063e6cb901314620005de578063ff5ffdbe146200062c575b600080fd5b62000128600480360381019080803590602001909291905050506200068a565b005b3480156200013757600080fd5b506200015860048036038101908080359060200190929190505050620009dd565b005b3480156200016757600080fd5b506200017262000a9c565b6040518082815260200191505060405180910390f35b3480156200019557600080fd5b50620001d46004803603810190808035906020019092919080359060200190929190803590602001909291908035906020019092919050505062000aa2565b6040518082815260200191505060405180910390f35b348015620001f757600080fd5b50620002186004803603810190808035906020019092919050505062000ae8565b60405180848152602001838152602001828152602001935050505060405180910390f35b3480156200024957600080fd5b5062000274600480360381019080803590602001909291908035906020019092919050505062000eb2565b604051808473ffffffffffffffffffffffffffffffffffffffff1673ffffffffffffffffffffffffffffffffffffffff16815260200183815260200182151515158152602001935050505060405180910390f35b348015620002d557600080fd5b50620002e062000f93565b6040518082815260200191505060405180910390f35b3480156200030357600080fd5b50620003246004803603810190808035906020019092919050505062000f99565b604051808273ffffffffffffffffffffffffffffffffffffffff1673ffffffffffffffffffffffffffffffffffffffff16815260200191505060405180910390f35b3480156200037357600080fd5b50620003946004803603810190808035906020019092919050505062000fd6565b60405180826000191660001916815260200191505060405180910390f35b348015620003bf57600080fd5b50620003ea600480360381019080803590602001909291908035906020019092919050505062001086565b6040518082815260200191505060405180910390f35b3480156200040d57600080fd5b50620004386004803603810190808035906020019092919080359060200190929190505050620010a3565b6040518082815260200191505060405180910390f35b620004fa60048036038101908080359060200190929190803590602001908201803590602001908080601f0160208091040260200160405190810160405280939291908181526020018383808284378201915050505050509192919290803590602001908201803590602001908080601f0160208091040260200160405190810160405280939291908181526020018383808284378201915050505050509192919290505050620010c9565b005b3480156200050957600080fd5b506200054860048036038101908080359060200190929190803590602001909291908035906020019092919080359060200190929190505050620011ad565b005b3480156200055757600080fd5b5062000582600480360381019080803590602001909291908035906020019092919050505062001807565b6040518082815260200191505060405180910390f35b348015620005a557600080fd5b50620005dc60048036038101908080359060200190929190803515159060200190929190803590602001909291905050506200183b565b005b348015620005eb57600080fd5b50620006166004803603810190808035906020019092919080359060200190929190505050620019b3565b6040518082815260200191505060405180910390f35b62000688600480360381019080803590602001908201803590602001908080601f0160208091040260200160405190810160405280939291908181526020018383808284378201915050505050509192919290505050620019d0565b005b60006200069b6000546001620019b3565b6000819055506002600083815260200190815260200160002060009054906101000a900473ffffffffffffffffffffffffffffffffffffffff1690508073ffffffffffffffffffffffffffffffffffffffff16632004ffd9346040518263ffffffff167c01000000000000000000000000000000000000000000000000000000000281526004016000604051808303818588803b1580156200073c57600080fd5b505af115801562000751573d6000803e3d6000fd5b50505050507f9e5c2db33d1c99a65b4264a62e69eda49e5c72dfa2528b9809b0659047dbcbe16200078c620007863462000fd6565b62001bcc565b6040518080602001828103825283818151815260200191508051906020019080838360005b83811015620007ce578082015181840152602081019050620007b1565b50505050905090810190601f168015620007fc5780820380516001836020036101000a031916815260200191505b509250505060405180910390a17f9e5c2db33d1c99a65b4264a62e69eda49e5c72dfa2528b9809b0659047dbcbe1620008e0620008da8373ffffffffffffffffffffffffffffffffffffffff166318160ddd6040518163ffffffff167c0100000000000000000000000000000000000000000000000000000000028152600401602060405180830381600087803b1580156200089757600080fd5b505af1158015620008ac573d6000803e3d6000fd5b505050506040513d6020811015620008c357600080fd5b810190808051906020019092919050505062000fd6565b62001bcc565b6040518080602001828103825283818151815260200191508051906020019080838360005b838110156200092257808201518184015260208101905062000905565b50505050905090810190601f168015620009505780820380516001836020036101000a031916815260200191505b509250505060405180910390a1620009d9600054836040805190810160405280600881526020017f4a6f696e2044414f0000000000000000000000000000000000000000000000008152506040805190810160405280600881526020017f4a6f696e2044414f000000000000000000000000000000000000000000000000815250333462001cd4565b5050565b6000806002600084815260200190815260200160002060009054906101000a900473ffffffffffffffffffffffffffffffffffffffff1691508190508073ffffffffffffffffffffffffffffffffffffffff16639e35a8be6040518163ffffffff167c0100000000000000000000000000000000000000000000000000000000028152600401600060405180830381600087803b15801562000a7e57600080fd5b505af115801562000a93573d6000803e3d6000fd5b50505050505050565b60015481565b6000808311151562000ab357600080fd5b60028202600a0a82600a0a84028584600a0a880281151562000ad157fe5b040281151562000add57fe5b049050949350505050565b600080600062000af762001f01565b600080600060606000600360008b815260200190815260200160002060c060405190810160405290816000820160009054906101000a900473ffffffffffffffffffffffffffffffffffffffff1673ffffffffffffffffffffffffffffffffffffffff1673ffffffffffffffffffffffffffffffffffffffff16815260200160018201548152602001600282018054600181600116156101000203166002900480601f01602080910402602001604051908101604052809291908181526020018280546001816001161561010002031660029004801562000c1c5780601f1062000bf05761010080835404028352916020019162000c1c565b820191906000526020600020905b81548152906001019060200180831162000bfe57829003601f168201915b5050505050815260200160038201548152602001600482018054600181600116156101000203166002900480601f01602080910402602001604051908101604052809291908181526020018280546001816001161561010002031660029004801562000ccc5780601f1062000ca05761010080835404028352916020019162000ccc565b820191906000526020600020905b81548152906001019060200180831162000cae57829003601f168201915b5050505050815260200160058201805480602002602001604051908101604052809291908181526020016000905b8282101562000daa5783829060005260206000209060030201606060405190810160405290816000820160009054906101000a900473ffffffffffffffffffffffffffffffffffffffff1673ffffffffffffffffffffffffffffffffffffffff1673ffffffffffffffffffffffffffffffffffffffff168152602001600182015481526020016002820160009054906101000a900460ff1615151515815250508152602001906001019062000cfa565b505050508152505095506001945060009350600092508560a001519150600090505b815181101562000e5c5762000dfe84838381518110151562000dea57fe5b9060200190602002015160200151620019b3565b9350818181518110151562000e0f57fe5b90602001906020020151604001511562000e4e5762000e4b83838381518110151562000e3757fe5b9060200190602002015160200151620019b3565b92505b808060010191505062000dcc565b85606001514210151562000e955762000e77846002620010a3565b8310151562000e8a576002945062000e8f565b600394505b62000e9a565b600194505b84838486039850985098505050505050509193909250565b6000806000600360008681526020019081526020016000206005018481548110151562000edb57fe5b906000526020600020906003020160000160009054906101000a900473ffffffffffffffffffffffffffffffffffffffff16600360008781526020019081526020016000206005018581548110151562000f3157fe5b906000526020600020906003020160010154600360008881526020019081526020016000206005018681548110151562000f6757fe5b906000526020600020906003020160020160009054906101000a900460ff169250925092509250925092565b60005481565b60006002600083815260200190815260200160002060009054906101000a900473ffffffffffffffffffffffffffffffffffffffff169050919050565b6000808214156200100a577f300000000000000000000000000000000000000000000000000000000000000090506200107e565b5b60008211156200107d5761010081600190048115156200102757fe5b0460010290507f01000000000000000000000000000000000000000000000000000000000000006030600a848115156200105d57fe5b06010260010281179050600a828115156200107457fe5b0491506200100b565b5b809050919050565b60008282111515156200109857600080fd5b818303905092915050565b60008082111515620010b457600080fd5b8183811515620010c057fe5b04905092915050565b6000620010da6000546001620019b3565b6000819055506002600085815260200190815260200160002060009054906101000a900473ffffffffffffffffffffffffffffffffffffffff1690508073ffffffffffffffffffffffffffffffffffffffff16632004ffd9346040518263ffffffff167c01000000000000000000000000000000000000000000000000000000000281526004016000604051808303818588803b1580156200117b57600080fd5b505af115801562001190573d6000803e3d6000fd5b5050505050620011a7600054858585333462001cd4565b50505050565b620011b762001f01565b600060606000806000600360008b815260200190815260200160002060c060405190810160405290816000820160009054906101000a900473ffffffffffffffffffffffffffffffffffffffff1673ffffffffffffffffffffffffffffffffffffffff1673ffffffffffffffffffffffffffffffffffffffff16815260200160018201548152602001600282018054600181600116156101000203166002900480601f016020809104026020016040519081016040528092919081815260200182805460018160011615610100020316600290048015620012dc5780601f10620012b057610100808354040283529160200191620012dc565b820191906000526020600020905b815481529060010190602001808311620012be57829003601f168201915b5050505050815260200160038201548152602001600482018054600181600116156101000203166002900480601f0160208091040260200160405190810160405280929190818152602001828054600181600116156101000203166002900480156200138c5780601f1062001360576101008083540402835291602001916200138c565b820191906000526020600020905b8154815290600101906020018083116200136e57829003601f168201915b5050505050815260200160058201805480602002602001604051908101604052809291908181526020016000905b828210156200146a5783829060005260206000209060030201606060405190810160405290816000820160009054906101000a900473ffffffffffffffffffffffffffffffffffffffff1673ffffffffffffffffffffffffffffffffffffffff1673ffffffffffffffffffffffffffffffffffffffff168152602001600182015481526020016002820160009054906101000a900460ff16151515158152505081526020019060010190620013ba565b50505050815250509550600260008760200151815260200190815260200160002060009054906101000a900473ffffffffffffffffffffffffffffffffffffffff1694508560a001519350849250600091505b8351821015620017fb57868810158015620014f157508382815181101515620014e257fe5b90602001906020020151604001515b156200165c576200152284838151811015156200150a57fe5b9060200190602002015160200151898b600262000aa2565b90508273ffffffffffffffffffffffffffffffffffffffff166323b872dd3086858151811015156200155057fe5b9060200190602002015160000151846040518463ffffffff167c0100000000000000000000000000000000000000000000000000000000028152600401808473ffffffffffffffffffffffffffffffffffffffff1673ffffffffffffffffffffffffffffffffffffffff1681526020018373ffffffffffffffffffffffffffffffffffffffff1673ffffffffffffffffffffffffffffffffffffffff1681526020018281526020019350505050602060405180830381600087803b1580156200161857600080fd5b505af11580156200162d573d6000803e3d6000fd5b505050506040513d60208110156200164457600080fd5b810190808051906020019092919050505050620017ed565b878710801562001686575083828151811015156200167657fe5b9060200190602002015160400151155b15620017ec57620016b784838151811015156200169f57fe5b9060200190602002015160200151888b600262000aa2565b90508273ffffffffffffffffffffffffffffffffffffffff166323b872dd308685815181101515620016e557fe5b9060200190602002015160000151846040518463ffffffff167c0100000000000000000000000000000000000000000000000000000000028152600401808473ffffffffffffffffffffffffffffffffffffffff1673ffffffffffffffffffffffffffffffffffffffff1681526020018373ffffffffffffffffffffffffffffffffffffffff1673ffffffffffffffffffffffffffffffffffffffff1681526020018281526020019350505050602060405180830381600087803b158015620017ad57600080fd5b505af1158015620017c2573d6000803e3d6000fd5b505050506040513d6020811015620017d957600080fd5b8101908080519060200190929190505050505b5b8180600101925050620014bd565b50505050505050505050565b6000818302905060008314806200182957508183828115156200182657fe5b04145b15156200183557600080fd5b92915050565b6000600260006003600087815260200190815260200160002060010154815260200190815260200160002060009054906101000a900473ffffffffffffffffffffffffffffffffffffffff1690508073ffffffffffffffffffffffffffffffffffffffff166323b872dd3330856040518463ffffffff167c0100000000000000000000000000000000000000000000000000000000028152600401808473ffffffffffffffffffffffffffffffffffffffff1673ffffffffffffffffffffffffffffffffffffffff1681526020018373ffffffffffffffffffffffffffffffffffffffff1673ffffffffffffffffffffffffffffffffffffffff1681526020018281526020019350505050602060405180830381600087803b1580156200196157600080fd5b505af115801562001976573d6000803e3d6000fd5b505050506040513d60208110156200198d57600080fd5b810190808051906020019092919050505050620019ad8433848662001dfe565b50505050565b60008183019050828110151515620019ca57600080fd5b92915050565b60606000620019e36001546001620019b3565b60018190555062001a00620019fa60015462000fd6565b62001bcc565b915034828462001a0f62001f4e565b808060200180602001838103835285818151815260200191508051906020019080838360005b8381101562001a5257808201518184015260208101905062001a35565b50505050905090810190601f16801562001a805780820380516001836020036101000a031916815260200191505b50838103825284818151815260200191508051906020019080838360005b8381101562001abb57808201518184015260208101905062001a9e565b50505050905090810190601f16801562001ae95780820380516001836020036101000a031916815260200191505b509450505050506040518091039082f08015801562001b0c573d6000803e3d6000fd5b50905090508060026000600154815260200190815260200160002060006101000a81548173ffffffffffffffffffffffffffffffffffffffff021916908373ffffffffffffffffffffffffffffffffffffffff16021790555062001b746000546001620019b3565b6000819055507f52a20d7a043880fc99942f4c7e2009b9cdb20861120ac888179064fd503bbf926001546040518082815260200191505060405180910390a162001bc76000546001548586333462001cd4565b505050565b60608060008060206040519080825280601f01601f19166020018201604052801562001c075781602001602082028038833980820191505090505b509250600091505b602082101562001cc9578160080260020a856001900402600102905060007f010000000000000000000000000000000000000000000000000000000000000002817effffffffffffffffffffffffffffffffffffffffffffffffffffffffffffff191614151562001cbb5780838381518110151562001c8a57fe5b9060200101907effffffffffffffffffffffffffffffffffffffffffffffffffffffffffffff1916908160001a9053505b818060010192505062001c0f565b829350505050919050565b60008060b4420191507f0c694c702f8f4e65423efa574b0d5d01013bfb3e8677a807a89f434ffdae69be8883604051808381526020018281526020019250505060405180910390a1600360008981526020019081526020016000209050838160000160006101000a81548173ffffffffffffffffffffffffffffffffffffffff021916908373ffffffffffffffffffffffffffffffffffffffff1602179055508681600101819055508581600201908051906020019062001d9792919062001f5f565b508181600301819055508481600401908051906020019062001dbb92919062001f5f565b5062001dd8888560028681151562001dcf57fe5b04600162001dfe565b62001df4888560028681151562001deb57fe5b04600062001dfe565b5050505050505050565b600062001e0a62001fe6565b6003600087815260200190815260200160002091506060604051908101604052808673ffffffffffffffffffffffffffffffffffffffff168152602001858152602001841515815250905081600501819080600181540180825580915050906001820390600052602060002090600302016000909192909190915060008201518160000160006101000a81548173ffffffffffffffffffffffffffffffffffffffff021916908373ffffffffffffffffffffffffffffffffffffffff1602179055506020820151816001015560408201518160020160006101000a81548160ff021916908315150217905550505050505050505050565b60c060405190810160405280600073ffffffffffffffffffffffffffffffffffffffff16815260200160008152602001606081526020016000815260200160608152602001606081525090565b6040516112f5806200204983390190565b828054600181600116156101000203166002900490600052602060002090601f016020900481019282601f1062001fa257805160ff191683800117855562001fd3565b8280016001018555821562001fd3579182015b8281111562001fd257825182559160200191906001019062001fb5565b5b50905062001fe2919062002020565b5090565b606060405190810160405280600073ffffffffffffffffffffffffffffffffffffffff168152602001600081526020016000151581525090565b6200204591905b808211156200204157600081600090555060010162002027565b5090565b9056006080604052604051620012f5380380620012f5833981018060405281019080805182019291906020018051820192919050505081600090805190602001906200004a9291906200013d565b508060019080519060200190620000639291906200013d565b506012600260006101000a81548160ff021916908360ff16021790555034600381905550600354600560003373ffffffffffffffffffffffffffffffffffffffff1673ffffffffffffffffffffffffffffffffffffffff168152602001908152602001600020819055503373ffffffffffffffffffffffffffffffffffffffff16600073ffffffffffffffffffffffffffffffffffffffff167fddf252ad1be2c89b69c2b068fc378daa952ba7f163c4a11628f55a4df523b3ef6003546040518082815260200191505060405180910390a35050620001ec565b828054600181600116156101000203166002900490600052602060002090601f016020900481019282601f106200018057805160ff1916838001178555620001b1565b82800160010185558215620001b1579182015b82811115620001b057825182559160200191906001019062000193565b5b509050620001c09190620001c4565b5090565b620001e991905b80821115620001e5576000816000905550600101620001cb565b5090565b90565b6110f980620001fc6000396000f3006080604052600436106100f1576000357c0100000000000000000000000000000000000000000000000000000000900463ffffffff16806306fdde03146100f6578063095ea7b31461018657806318160ddd146101eb5780632004ffd91461021657806323b872dd14610220578063313ce567146102a557806337e9c7fa146102d65780633eaaf86b1461033557806370a082311461036057806395d89b41146103b75780639e35a8be14610447578063a293d1e81461045e578063a9059cbb146104a9578063b5931f7c1461050e578063d05c78da14610559578063dd62ed3e146105a4578063e6cb90131461061b575b600080fd5b34801561010257600080fd5b5061010b610666565b6040518080602001828103825283818151815260200191508051906020019080838360005b8381101561014b578082015181840152602081019050610130565b50505050905090810190601f1680156101785780820380516001836020036101000a031916815260200191505b509250505060405180910390f35b34801561019257600080fd5b506101d1600480360381019080803573ffffffffffffffffffffffffffffffffffffffff16906020019092919080359060200190929190505050610704565b604051808215151515815260200191505060405180910390f35b3480156101f757600080fd5b506102006107f6565b6040518082815260200191505060405180910390f35b61021e610841565b005b34801561022c57600080fd5b5061028b600480360381019080803573ffffffffffffffffffffffffffffffffffffffff169060200190929190803573ffffffffffffffffffffffffffffffffffffffff16906020019092919080359060200190929190505050610947565b604051808215151515815260200191505060405180910390f35b3480156102b157600080fd5b506102ba610ada565b604051808260ff1660ff16815260200191505060405180910390f35b3480156102e257600080fd5b5061031f60048036038101908080359060200190929190803590602001909291908035906020019092919080359060200190929190505050610aed565b6040518082815260200191505060405180910390f35b34801561034157600080fd5b5061034a610b30565b6040518082815260200191505060405180910390f35b34801561036c57600080fd5b506103a1600480360381019080803573ffffffffffffffffffffffffffffffffffffffff169060200190929190505050610b36565b6040518082815260200191505060405180910390f35b3480156103c357600080fd5b506103cc610b7f565b6040518080602001828103825283818151815260200191508051906020019080838360005b8381101561040c5780820151818401526020810190506103f1565b50505050905090810190601f1680156104395780820380516001836020036101000a031916815260200191505b509250505060405180910390f35b34801561045357600080fd5b5061045c610c1d565b005b34801561046a57600080fd5b506104936004803603810190808035906020019092919080359060200190929190505050610d78565b6040518082815260200191505060405180910390f35b3480156104b557600080fd5b506104f4600480360381019080803573ffffffffffffffffffffffffffffffffffffffff16906020019092919080359060200190929190505050610d94565b604051808215151515815260200191505060405180910390f35b34801561051a57600080fd5b506105436004803603810190808035906020019092919080359060200190929190505050610f1d565b6040518082815260200191505060405180910390f35b34801561056557600080fd5b5061058e6004803603810190808035906020019092919080359060200190929190505050610f41565b6040518082815260200191505060405180910390f35b3480156105b057600080fd5b50610605600480360381019080803573ffffffffffffffffffffffffffffffffffffffff169060200190929190803573ffffffffffffffffffffffffffffffffffffffff169060200190929190505050610f72565b6040518082815260200191505060405180910390f35b34801561062757600080fd5b506106506004803603810190808035906020019092919080359060200190929190505050610ff9565b6040518082815260200191505060405180910390f35b60018054600181600116156101000203166002900480601f0160208091040260200160405190810160405280929190818152602001828054600181600116156101000203166002900480156106fc5780601f106106d1576101008083540402835291602001916106fc565b820191906000526020600020905b8154815290600101906020018083116106df57829003601f168201915b505050505081565b600081600660003373ffffffffffffffffffffffffffffffffffffffff1673ffffffffffffffffffffffffffffffffffffffff16815260200190815260200160002060008573ffffffffffffffffffffffffffffffffffffffff1673ffffffffffffffffffffffffffffffffffffffff168152602001908152602001600020819055508273ffffffffffffffffffffffffffffffffffffffff163373ffffffffffffffffffffffffffffffffffffffff167f8c5be1e5ebec7d5bd14f71427d1e84f3dd0314c0f7b2291e5b200ac8c7c3b925846040518082815260200191505060405180910390a36001905092915050565b6000600560008073ffffffffffffffffffffffffffffffffffffffff1673ffffffffffffffffffffffffffffffffffffffff1681526020019081526020016000205460035403905090565b61088a600560003373ffffffffffffffffffffffffffffffffffffffff1673ffffffffffffffffffffffffffffffffffffffff1681526020019081526020016000205434610ff9565b600560003373ffffffffffffffffffffffffffffffffffffffff1673ffffffffffffffffffffffffffffffffffffffff168152602001908152602001600020819055506108d960035434610ff9565b6003819055503373ffffffffffffffffffffffffffffffffffffffff16600073ffffffffffffffffffffffffffffffffffffffff167fddf252ad1be2c89b69c2b068fc378daa952ba7f163c4a11628f55a4df523b3ef346040518082815260200191505060405180910390a3565b6000610992600560008673ffffffffffffffffffffffffffffffffffffffff1673ffffffffffffffffffffffffffffffffffffffff1681526020019081526020016000205483610d78565b600560008673ffffffffffffffffffffffffffffffffffffffff1673ffffffffffffffffffffffffffffffffffffffff16815260200190815260200160002081905550610a1e600560008573ffffffffffffffffffffffffffffffffffffffff1673ffffffffffffffffffffffffffffffffffffffff1681526020019081526020016000205483610ff9565b600560008573ffffffffffffffffffffffffffffffffffffffff1673ffffffffffffffffffffffffffffffffffffffff16815260200190815260200160002081905550610a6a83611015565b8273ffffffffffffffffffffffffffffffffffffffff168473ffffffffffffffffffffffffffffffffffffffff167fddf252ad1be2c89b69c2b068fc378daa952ba7f163c4a11628f55a4df523b3ef846040518082815260200191505060405180910390a3600190509392505050565b600260009054906101000a900460ff1681565b60008083111515610afd57600080fd5b60028202600a0a82600a0a84028584600a0a8802811515610b1a57fe5b0402811515610b2557fe5b049050949350505050565b60035481565b6000600560008373ffffffffffffffffffffffffffffffffffffffff1673ffffffffffffffffffffffffffffffffffffffff168152602001908152602001600020549050919050565b60008054600181600116156101000203166002900480601f016020809104026020016040519081016040528092919081815260200182805460018160011615610100020316600290048015610c155780601f10610bea57610100808354040283529160200191610c15565b820191906000526020600020905b815481529060010190602001808311610bf857829003601f168201915b505050505081565b6000806000803073ffffffffffffffffffffffffffffffffffffffff16319250600090505b600480549050811015610d725760056000600483815481101515610c6257fe5b9060005260206000200160009054906101000a900473ffffffffffffffffffffffffffffffffffffffff1673ffffffffffffffffffffffffffffffffffffffff1673ffffffffffffffffffffffffffffffffffffffff1681526020019081526020016000205491506000821115610d6557610ce282600354856012610aed565b9350600481815481101515610cf357fe5b9060005260206000200160009054906101000a900473ffffffffffffffffffffffffffffffffffffffff1673ffffffffffffffffffffffffffffffffffffffff166108fc859081150290604051600060405180830381858888f19350505050158015610d63573d6000803e3d6000fd5b505b8080600101915050610c42565b50505050565b6000828211151515610d8957600080fd5b818303905092915050565b6000610ddf600560003373ffffffffffffffffffffffffffffffffffffffff1673ffffffffffffffffffffffffffffffffffffffff1681526020019081526020016000205483610d78565b600560003373ffffffffffffffffffffffffffffffffffffffff1673ffffffffffffffffffffffffffffffffffffffff16815260200190815260200160002081905550610e6b600560008573ffffffffffffffffffffffffffffffffffffffff1673ffffffffffffffffffffffffffffffffffffffff1681526020019081526020016000205483610ff9565b600560008573ffffffffffffffffffffffffffffffffffffffff1673ffffffffffffffffffffffffffffffffffffffff168152602001908152602001600020819055508273ffffffffffffffffffffffffffffffffffffffff163373ffffffffffffffffffffffffffffffffffffffff167fddf252ad1be2c89b69c2b068fc378daa952ba7f163c4a11628f55a4df523b3ef846040518082815260200191505060405180910390a36001905092915050565b60008082111515610f2d57600080fd5b8183811515610f3857fe5b04905092915050565b600081830290506000831480610f615750818382811515610f5e57fe5b04145b1515610f6c57600080fd5b92915050565b6000600660008473ffffffffffffffffffffffffffffffffffffffff1673ffffffffffffffffffffffffffffffffffffffff16815260200190815260200160002060008373ffffffffffffffffffffffffffffffffffffffff1673ffffffffffffffffffffffffffffffffffffffff16815260200190815260200160002054905092915050565b6000818301905082811015151561100f57600080fd5b92915050565b6000600560008373ffffffffffffffffffffffffffffffffffffffff1673ffffffffffffffffffffffffffffffffffffffff16815260200190815260200160002054905060008114156110c95760048290806001815401808255809150509060018203906000526020600020016000909192909190916101000a81548173ffffffffffffffffffffffffffffffffffffffff021916908373ffffffffffffffffffffffffffffffffffffffff160217905550505b50505600a165627a7a72305820a63802606eea759de99ca07a2862a610648e0d41fc36d015affffb39cc7e03300029a165627a7a72305820d24a1d04bb382a119c40da6db3e86173f6063df22ca11318dfd4fd36dac82ded0029",
  "source": "pragma solidity ^0.4.24;\n\nimport \"./SafeMath.sol\";\nimport \"./REP.sol\";\n\ncontract SemadaCore is SafeMath {\n\n  uint256 public proposalIndex;\n  uint256 public tokenNumberIndex;\n\n  mapping(uint256 => address) erc20SymbolAddresses;\n\n  struct Vote {\n    address from;\n    uint256 rep;\n    bool vote;\n  }\n\n  struct Pool { \n    address from;  \n    uint256 tokenNumberIndex;\n    string name; \n    uint256 timeout;  \n    string evidence;  \n    Vote[] votes;\n  }\n\n  mapping(uint256 => Pool) validationPool;\n  \n  event NewProposalCreated(uint256 proposalIndex, uint256 timeout);\n  event NewDaoCreated(uint256 tokenNumberIndex);\n  event SemadaInfo(string message);\n  event SemDistributed(address to, uint256 value);\n  event ProposalStatus(string status, uint256 yesRepStaked, uint256 noRepStaked);\n\n  function getTokenAddress(uint256 _tokenNumberIndex) \n  public view returns (address tokenAddress){\n    \n    return erc20SymbolAddresses[_tokenNumberIndex];\n  }\n\n  function getProposalVotes(uint256 _proposalIndex) view \n  public returns (uint, uint256, uint256) {\n    \n    Pool memory pool = validationPool[_proposalIndex];\n    \n    uint status = 1;\n    uint256 totalRep = 0;\n    uint256 totalYesRep = 0;\n    Vote[] memory votes = pool.votes;\n    \n    for(uint i = 0; i < votes.length; i++){\n      totalRep = safeAdd(totalRep, votes[i].rep);\n      if(votes[i].vote){\n        totalYesRep = safeAdd(totalYesRep, votes[i].rep);\n      }\n    }\n    \n    // TODO: handle timeout case\n    \n    if(now >= pool.timeout){\n      if(totalYesRep >= safeDiv(totalRep, 2)){\n        status = 2;\n      } else {\n        status = 3;\n      }\n    } else {\n      status = 1;\n    } \n    \n    return (\n      status,\n      totalYesRep,\n      totalRep - totalYesRep\n      );\n  }\n  \n  function getVote(uint256 _proposalIndex, uint256 _voteIndex) view\n  public returns (address, uint256, bool) {\n    return (validationPool[_proposalIndex].votes[_voteIndex].from,\n      validationPool[_proposalIndex].votes[_voteIndex].rep,\n      validationPool[_proposalIndex].votes[_voteIndex].vote);\n  }\n\n  function joinDao(uint256 _tokenNumberIndex) \n  public payable {\n\n    proposalIndex = safeAdd(proposalIndex, 1);\n      \n    REP rep = REP(erc20SymbolAddresses[_tokenNumberIndex]);\n    rep.mintToken.value(msg.value)();\n    emit SemadaInfo(bytes32ToString(uintToBytes(msg.value)));\n    emit SemadaInfo(bytes32ToString(uintToBytes(rep.totalSupply())));\n    \n    newProposalInternal(\n      proposalIndex,\n      _tokenNumberIndex, \n      \"Join DAO\",\n      \"Join DAO\",\n      msg.sender, \n      msg.value);\n  }\n  \n  function bytes32ToString (bytes32 data) internal pure returns (string) {\n    bytes memory bytesString = new bytes(32);\n    for (uint j=0; j<32; j++) {\n      byte char = byte(bytes32(uint(data) * 2 ** (8 * j)));\n      if (char != 0) {\n          bytesString[j] = char;\n      }\n    }\n    return string(bytesString);\n  }\n\n  function uintToBytes(uint v) pure returns (bytes32 ret) {\n    if (v == 0) {\n        ret = '0';\n    }\n    else {\n        while (v > 0) {\n            ret = bytes32(uint(ret) / (2 ** 8));\n            ret |= bytes32(((v % 10) + 48) * 2 ** (8 * 31));\n            v /= 10;\n        }\n    }\n    return ret;\n  }\n\n \n  function createDao(string _tokenName) \n  public payable {\n    \n    tokenNumberIndex = safeAdd(tokenNumberIndex, 1);\n    \n    string memory _tokenSymbol = \n      bytes32ToString(uintToBytes(tokenNumberIndex));\n      \n    address _tokenAddress = \n      (new REP).value(msg.value)(_tokenSymbol, _tokenName);\n      \n    erc20SymbolAddresses[tokenNumberIndex] = _tokenAddress;\n    \n    proposalIndex = safeAdd(proposalIndex, 1);\n    \n    emit NewDaoCreated(tokenNumberIndex);\n        \n    newProposalInternal(\n      proposalIndex,\n      tokenNumberIndex, \n      _tokenName, \n      _tokenName,\n      msg.sender,\n      msg.value);    \n  }\n  \n  function newProposal(\n    uint256 _tokenNumberIndex,\n    string _proposalName,\n    string _proposalEvidence\n    ) public payable {\n      \n    proposalIndex = safeAdd(proposalIndex, 1);\n\n    REP rep = REP(erc20SymbolAddresses[_tokenNumberIndex]);\n    rep.mintToken.value(msg.value)();\n    \n    newProposalInternal(\n      proposalIndex,\n      _tokenNumberIndex,\n      _proposalName,\n      _proposalEvidence,\n      msg.sender,\n      msg.value);\n  }\n  \n  function newProposalInternal(\n    uint256 _proposalIndex,\n    uint256 _tokenNumberIndex, \n    string _proposalName, \n    string _proposalEvidence,\n    address _from,\n    uint256 _value) internal {\n    \n    //setting timeout to 180 seconds from now\n    uint256 _timeout = now + 180;\n    emit NewProposalCreated(_proposalIndex, _timeout);\n\n    Pool storage pool = validationPool[_proposalIndex];\n    pool.from = _from;\n    pool.tokenNumberIndex = _tokenNumberIndex;\n    pool.name = _proposalName;\n    pool.timeout = _timeout;\n    pool.evidence = _proposalEvidence;\n\n    voteInternal(_proposalIndex, _from, (_value / 2), true);\n    //TODO: should false vote be 0 account?\n    voteInternal(_proposalIndex, _from, (_value / 2), false);\n  }\n  \n  function vote(\n    uint256 _proposalIndex,\n    bool _vote,\n    uint _rep\n    ) public {\n    REP rep = REP(erc20SymbolAddresses[validationPool[_proposalIndex].tokenNumberIndex]);\n    rep.transferFrom(msg.sender, this, _rep);\n    \n    voteInternal(\n      _proposalIndex,\n      msg.sender,\n      _rep,\n      _vote\n    );\n      \n  }\n  \n  function voteInternal(\n    uint256 _proposalIndex, \n    address _from,\n    uint256 _value,\n    bool _vote\n    ) internal {\n    \n    Pool storage pool = validationPool[_proposalIndex];\n      \n    Vote memory newVote = Vote({from:_from, rep:_value, vote:_vote});\n    \n    pool.votes.push(newVote);\n  }\n  \n\n  function distributeRep(uint256 _proposalIndex,\n    uint256 _totalRepStaked, \n    uint256 _yesRepStaked, \n    uint256 _noRepStaked) public {\n      \n    Pool memory pool = validationPool[_proposalIndex];\n    address tokenAddress;\n    tokenAddress = erc20SymbolAddresses[pool.tokenNumberIndex];\n    Vote[] memory votes = pool.votes;\n    \n    REP rep = REP(tokenAddress);\n  \n    for(uint j = 0; j < votes.length; j++){\n      uint256 betAmtWon;\n      if(_yesRepStaked >= _noRepStaked && votes[j].vote){\n      \n        betAmtWon = \n          safePercentageOf(votes[j].rep, _yesRepStaked, _totalRepStaked, 2);\n          \n        rep.transferFrom(this, votes[j].from, betAmtWon);\n      } else if (_noRepStaked < _yesRepStaked && !votes[j].vote){\n        \n        betAmtWon = \n          safePercentageOf(votes[j].rep, \n            _noRepStaked, _totalRepStaked, 2);\n          \n        rep.transferFrom(this, votes[j].from, betAmtWon);\n      }\n    }    \n  }\n  \n  function distributeSem(uint256 _tokenNumberIndex) public {\n    address tokenAddress = erc20SymbolAddresses[_tokenNumberIndex];\n    REP rep = REP(tokenAddress);\n    \n    rep.distributeSem();\n  }\n}",
  "sourcePath": "/Users/josh/Projects/Node/semada-demo/contracts/SemadaCore.sol",
  "compiler": {
    "name": "solc",
    "version": "0.4.24+commit.e67f0147.Emscripten.clang"
  },
  "schemaVersion": "2.0.1",
  "updatedAt": "2018-10-20T00:14:09.430Z"
}