{
  "contractName": "SemadaCore",
  "abi": [
    {
      "constant": true,
      "inputs": [],
      "name": "tokenNumberIndex",
      "outputs": [
        {
          "name": "",
          "type": "uint256"
        }
      ],
      "payable": false,
      "stateMutability": "view",
      "type": "function"
    },
    {
      "constant": false,
      "inputs": [
        {
          "name": "a",
          "type": "uint256"
        },
        {
          "name": "b",
          "type": "uint256"
        },
        {
          "name": "c",
          "type": "uint256"
        },
        {
          "name": "precision",
          "type": "uint256"
        }
      ],
      "name": "safePercentageOf",
      "outputs": [
        {
          "name": "q",
          "type": "uint256"
        }
      ],
      "payable": false,
      "stateMutability": "nonpayable",
      "type": "function"
    },
    {
      "constant": true,
      "inputs": [],
      "name": "proposalIndex",
      "outputs": [
        {
          "name": "",
          "type": "uint256"
        }
      ],
      "payable": false,
      "stateMutability": "view",
      "type": "function"
    },
    {
      "constant": true,
      "inputs": [
        {
          "name": "a",
          "type": "uint256"
        },
        {
          "name": "b",
          "type": "uint256"
        }
      ],
      "name": "safeSub",
      "outputs": [
        {
          "name": "c",
          "type": "uint256"
        }
      ],
      "payable": false,
      "stateMutability": "pure",
      "type": "function"
    },
    {
      "constant": true,
      "inputs": [
        {
          "name": "a",
          "type": "uint256"
        },
        {
          "name": "b",
          "type": "uint256"
        }
      ],
      "name": "safeDiv",
      "outputs": [
        {
          "name": "c",
          "type": "uint256"
        }
      ],
      "payable": false,
      "stateMutability": "pure",
      "type": "function"
    },
    {
      "constant": true,
      "inputs": [
        {
          "name": "a",
          "type": "uint256"
        },
        {
          "name": "b",
          "type": "uint256"
        }
      ],
      "name": "safeMul",
      "outputs": [
        {
          "name": "c",
          "type": "uint256"
        }
      ],
      "payable": false,
      "stateMutability": "pure",
      "type": "function"
    },
    {
      "constant": true,
      "inputs": [
        {
          "name": "a",
          "type": "uint256"
        },
        {
          "name": "b",
          "type": "uint256"
        }
      ],
      "name": "safeAdd",
      "outputs": [
        {
          "name": "c",
          "type": "uint256"
        }
      ],
      "payable": false,
      "stateMutability": "pure",
      "type": "function"
    },
    {
      "anonymous": false,
      "inputs": [
        {
          "indexed": false,
          "name": "proposalIndex",
          "type": "uint256"
        },
        {
          "indexed": false,
          "name": "timeout",
          "type": "uint256"
        }
      ],
      "name": "NewProposalCreated",
      "type": "event"
    },
    {
      "anonymous": false,
      "inputs": [
        {
          "indexed": false,
          "name": "tokenNumberIndex",
          "type": "uint256"
        }
      ],
      "name": "NewDaoCreated",
      "type": "event"
    },
    {
      "anonymous": false,
      "inputs": [
        {
          "indexed": false,
          "name": "message",
          "type": "string"
        }
      ],
      "name": "SemadaInfo",
      "type": "event"
    },
    {
      "anonymous": false,
      "inputs": [
        {
          "indexed": false,
          "name": "to",
          "type": "address"
        },
        {
          "indexed": false,
          "name": "value",
          "type": "uint256"
        }
      ],
      "name": "SemDistributed",
      "type": "event"
    },
    {
      "anonymous": false,
      "inputs": [
        {
          "indexed": false,
          "name": "status",
          "type": "string"
        },
        {
          "indexed": false,
          "name": "yesRepStaked",
          "type": "uint256"
        },
        {
          "indexed": false,
          "name": "noRepStaked",
          "type": "uint256"
        }
      ],
      "name": "ProposalStatus",
      "type": "event"
    },
    {
      "anonymous": false,
      "inputs": [
        {
          "indexed": false,
          "name": "msg",
          "type": "string"
        },
        {
          "indexed": false,
          "name": "a",
          "type": "uint256"
        },
        {
          "indexed": false,
          "name": "b",
          "type": "uint256"
        },
        {
          "indexed": false,
          "name": "c",
          "type": "uint256"
        },
        {
          "indexed": false,
          "name": "precision",
          "type": "uint256"
        },
        {
          "indexed": false,
          "name": "balance",
          "type": "uint256"
        }
      ],
      "name": "SafeMessage",
      "type": "event"
    },
    {
      "constant": true,
      "inputs": [
        {
          "name": "_tokenNumberIndex",
          "type": "uint256"
        }
      ],
      "name": "getTokenAddress",
      "outputs": [
        {
          "name": "tokenAddress",
          "type": "address"
        }
      ],
      "payable": false,
      "stateMutability": "view",
      "type": "function"
    },
    {
      "constant": true,
      "inputs": [
        {
          "name": "_proposalIndex",
          "type": "uint256"
        }
      ],
      "name": "getProposalVotes",
      "outputs": [
        {
          "name": "",
          "type": "uint256"
        },
        {
          "name": "",
          "type": "uint256"
        },
        {
          "name": "",
          "type": "uint256"
        }
      ],
      "payable": false,
      "stateMutability": "view",
      "type": "function"
    },
    {
      "constant": true,
      "inputs": [
        {
          "name": "_proposalIndex",
          "type": "uint256"
        },
        {
          "name": "_voteIndex",
          "type": "uint256"
        }
      ],
      "name": "getVote",
      "outputs": [
        {
          "name": "",
          "type": "address"
        },
        {
          "name": "",
          "type": "uint256"
        },
        {
          "name": "",
          "type": "bool"
        }
      ],
      "payable": false,
      "stateMutability": "view",
      "type": "function"
    },
    {
      "constant": false,
      "inputs": [
        {
          "name": "_tokenNumberIndex",
          "type": "uint256"
        }
      ],
      "name": "joinDao",
      "outputs": [],
      "payable": true,
      "stateMutability": "payable",
      "type": "function"
    },
    {
      "constant": true,
      "inputs": [
        {
          "name": "v",
          "type": "uint256"
        }
      ],
      "name": "uintToBytes",
      "outputs": [
        {
          "name": "ret",
          "type": "bytes32"
        }
      ],
      "payable": false,
      "stateMutability": "pure",
      "type": "function"
    },
    {
      "constant": false,
      "inputs": [
        {
          "name": "_tokenName",
          "type": "string"
        }
      ],
      "name": "createDao",
      "outputs": [],
      "payable": true,
      "stateMutability": "payable",
      "type": "function"
    },
    {
      "constant": false,
      "inputs": [
        {
          "name": "_tokenNumberIndex",
          "type": "uint256"
        },
        {
          "name": "_proposalName",
          "type": "string"
        },
        {
          "name": "_proposalEvidence",
          "type": "string"
        }
      ],
      "name": "newProposal",
      "outputs": [],
      "payable": true,
      "stateMutability": "payable",
      "type": "function"
    },
    {
      "constant": false,
      "inputs": [
        {
          "name": "_proposalIndex",
          "type": "uint256"
        },
        {
          "name": "_vote",
          "type": "bool"
        },
        {
          "name": "_rep",
          "type": "uint256"
        }
      ],
      "name": "vote",
      "outputs": [],
      "payable": false,
      "stateMutability": "nonpayable",
      "type": "function"
    },
    {
      "constant": false,
      "inputs": [
        {
          "name": "_proposalIndex",
          "type": "uint256"
        },
        {
          "name": "_totalRepStaked",
          "type": "uint256"
        },
        {
          "name": "_yesRepStaked",
          "type": "uint256"
        },
        {
          "name": "_noRepStaked",
          "type": "uint256"
        }
      ],
      "name": "distributeRep",
      "outputs": [],
      "payable": false,
      "stateMutability": "nonpayable",
      "type": "function"
    },
    {
      "constant": false,
      "inputs": [
        {
          "name": "_tokenNumberIndex",
          "type": "uint256"
        }
      ],
      "name": "distributeSem",
      "outputs": [],
      "payable": false,
      "stateMutability": "nonpayable",
      "type": "function"
    }
  ],
  "bytecode": "0x608060405234801561001057600080fd5b50613699806100206000396000f30060806040526004361062000103576000357c0100000000000000000000000000000000000000000000000000000000900463ffffffff16806318084fd91462000108578063220df6fc146200012a5780632c57c7ef146200015a57806337e9c7fa146200018857806347c6614014620001ea57806349330cb8146200023c5780635977e0f214620002c857806367ccdf3814620002f657806394e8767d1462000366578063a293d1e814620003b2578063b5931f7c1462000400578063c40b34fc146200044e578063c88a755914620004fc578063d05c78da146200054a578063d46a5d7e1462000598578063e6cb901314620005de578063ff5ffdbe146200062c575b600080fd5b62000128600480360381019080803590602001909291905050506200068a565b005b3480156200013757600080fd5b506200015860048036038101908080359060200190929190505050620007d6565b005b3480156200016757600080fd5b5062000172620008fd565b6040518082815260200191505060405180910390f35b3480156200019557600080fd5b50620001d46004803603810190808035906020019092919080359060200190929190803590602001909291908035906020019092919050505062000903565b6040518082815260200191505060405180910390f35b348015620001f757600080fd5b5062000218600480360381019080803590602001909291905050506200095a565b60405180848152602001838152602001828152602001935050505060405180910390f35b3480156200024957600080fd5b5062000274600480360381019080803590602001909291908035906020019092919050505062000d24565b604051808473ffffffffffffffffffffffffffffffffffffffff1673ffffffffffffffffffffffffffffffffffffffff16815260200183815260200182151515158152602001935050505060405180910390f35b348015620002d557600080fd5b50620002e062000e05565b6040518082815260200191505060405180910390f35b3480156200030357600080fd5b50620003246004803603810190808035906020019092919050505062000e0b565b604051808273ffffffffffffffffffffffffffffffffffffffff1673ffffffffffffffffffffffffffffffffffffffff16815260200191505060405180910390f35b3480156200037357600080fd5b50620003946004803603810190808035906020019092919050505062000e48565b60405180826000191660001916815260200191505060405180910390f35b348015620003bf57600080fd5b50620003ea600480360381019080803590602001909291908035906020019092919050505062000ef8565b6040518082815260200191505060405180910390f35b3480156200040d57600080fd5b5062000438600480360381019080803590602001909291908035906020019092919050505062000f15565b6040518082815260200191505060405180910390f35b620004fa60048036038101908080359060200190929190803590602001908201803590602001908080601f0160208091040260200160405190810160405280939291908181526020018383808284378201915050505050509192919290803590602001908201803590602001908080601f016020809104026020016040519081016040528093929190818152602001838380828437820191505050505050919291929050505062000f3b565b005b3480156200050957600080fd5b5062000548600480360381019080803590602001909291908035906020019092919080359060200190929190803590602001909291905050506200101f565b005b3480156200055757600080fd5b5062000582600480360381019080803590602001909291908035906020019092919050505062001765565b6040518082815260200191505060405180910390f35b348015620005a557600080fd5b50620005dc600480360381019080803590602001909291908035151590602001909291908035906020019092919050505062001799565b005b348015620005eb57600080fd5b5062000616600480360381019080803590602001909291908035906020019092919050505062001911565b6040518082815260200191505060405180910390f35b62000688600480360381019080803590602001908201803590602001908080601f01602080910402602001604051908101604052809392919081815260200183838082843782019150505050505091929192905050506200192e565b005b60006200069b600054600162001911565b6000819055506002600083815260200190815260200160002060009054906101000a900473ffffffffffffffffffffffffffffffffffffffff1690508073ffffffffffffffffffffffffffffffffffffffff16632004ffd9346040518263ffffffff167c01000000000000000000000000000000000000000000000000000000000281526004016000604051808303818588803b1580156200073c57600080fd5b505af115801562000751573d6000803e3d6000fd5b5050505050620007d2600054836040805190810160405280600881526020017f4a6f696e2044414f0000000000000000000000000000000000000000000000008152506040805190810160405280600881526020017f4a6f696e2044414f000000000000000000000000000000000000000000000000815250333462001b2a565b5050565b6000806002600084815260200190815260200160002060009054906101000a900473ffffffffffffffffffffffffffffffffffffffff1691508190507f9e5c2db33d1c99a65b4264a62e69eda49e5c72dfa2528b9809b0659047dbcbe16040518080602001828103825260088152602001807f444953542053454d00000000000000000000000000000000000000000000000081525060200191505060405180910390a18073ffffffffffffffffffffffffffffffffffffffff16639e35a8be6040518163ffffffff167c0100000000000000000000000000000000000000000000000000000000028152600401600060405180830381600087803b158015620008df57600080fd5b505af1158015620008f4573d6000803e3d6000fd5b50505050505050565b60015481565b6000806000806000861115156200091957600080fd5b8685600a0a89028115156200092a57fe5b04925084600a0a8602915060028502600a0a9050808284028115156200094c57fe5b049350505050949350505050565b60008060006200096962001e5f565b600080600060606000600360008b815260200190815260200160002060c060405190810160405290816000820160009054906101000a900473ffffffffffffffffffffffffffffffffffffffff1673ffffffffffffffffffffffffffffffffffffffff1673ffffffffffffffffffffffffffffffffffffffff16815260200160018201548152602001600282018054600181600116156101000203166002900480601f01602080910402602001604051908101604052809291908181526020018280546001816001161561010002031660029004801562000a8e5780601f1062000a625761010080835404028352916020019162000a8e565b820191906000526020600020905b81548152906001019060200180831162000a7057829003601f168201915b5050505050815260200160038201548152602001600482018054600181600116156101000203166002900480601f01602080910402602001604051908101604052809291908181526020018280546001816001161561010002031660029004801562000b3e5780601f1062000b125761010080835404028352916020019162000b3e565b820191906000526020600020905b81548152906001019060200180831162000b2057829003601f168201915b5050505050815260200160058201805480602002602001604051908101604052809291908181526020016000905b8282101562000c1c5783829060005260206000209060030201606060405190810160405290816000820160009054906101000a900473ffffffffffffffffffffffffffffffffffffffff1673ffffffffffffffffffffffffffffffffffffffff1673ffffffffffffffffffffffffffffffffffffffff168152602001600182015481526020016002820160009054906101000a900460ff1615151515815250508152602001906001019062000b6c565b505050508152505095506001945060009350600092508560a001519150600090505b815181101562000cce5762000c7084838381518110151562000c5c57fe5b906020019060200201516020015162001911565b9350818181518110151562000c8157fe5b90602001906020020151604001511562000cc05762000cbd83838381518110151562000ca957fe5b906020019060200201516020015162001911565b92505b808060010191505062000c3e565b85606001514210151562000d075762000ce984600262000f15565b8310151562000cfc576002945062000d01565b600394505b62000d0c565b600194505b84838486039850985098505050505050509193909250565b6000806000600360008681526020019081526020016000206005018481548110151562000d4d57fe5b906000526020600020906003020160000160009054906101000a900473ffffffffffffffffffffffffffffffffffffffff16600360008781526020019081526020016000206005018581548110151562000da357fe5b906000526020600020906003020160010154600360008881526020019081526020016000206005018681548110151562000dd957fe5b906000526020600020906003020160020160009054906101000a900460ff169250925092509250925092565b60005481565b60006002600083815260200190815260200160002060009054906101000a900473ffffffffffffffffffffffffffffffffffffffff169050919050565b60008082141562000e7c577f3000000000000000000000000000000000000000000000000000000000000000905062000ef0565b5b600082111562000eef57610100816001900481151562000e9957fe5b0460010290507f01000000000000000000000000000000000000000000000000000000000000006030600a8481151562000ecf57fe5b06010260010281179050600a8281151562000ee657fe5b04915062000e7d565b5b809050919050565b600082821115151562000f0a57600080fd5b818303905092915050565b6000808211151562000f2657600080fd5b818381151562000f3257fe5b04905092915050565b600062000f4c600054600162001911565b6000819055506002600085815260200190815260200160002060009054906101000a900473ffffffffffffffffffffffffffffffffffffffff1690508073ffffffffffffffffffffffffffffffffffffffff16632004ffd9346040518263ffffffff167c01000000000000000000000000000000000000000000000000000000000281526004016000604051808303818588803b15801562000fed57600080fd5b505af115801562001002573d6000803e3d6000fd5b505050505062001019600054858585333462001b2a565b50505050565b6200102962001e5f565b600060606000806000600360008b815260200190815260200160002060c060405190810160405290816000820160009054906101000a900473ffffffffffffffffffffffffffffffffffffffff1673ffffffffffffffffffffffffffffffffffffffff1673ffffffffffffffffffffffffffffffffffffffff16815260200160018201548152602001600282018054600181600116156101000203166002900480601f0160208091040260200160405190810160405280929190818152602001828054600181600116156101000203166002900480156200114e5780601f1062001122576101008083540402835291602001916200114e565b820191906000526020600020905b8154815290600101906020018083116200113057829003601f168201915b5050505050815260200160038201548152602001600482018054600181600116156101000203166002900480601f016020809104026020016040519081016040528092919081815260200182805460018160011615610100020316600290048015620011fe5780601f10620011d257610100808354040283529160200191620011fe565b820191906000526020600020905b815481529060010190602001808311620011e057829003601f168201915b5050505050815260200160058201805480602002602001604051908101604052809291908181526020016000905b82821015620012dc5783829060005260206000209060030201606060405190810160405290816000820160009054906101000a900473ffffffffffffffffffffffffffffffffffffffff1673ffffffffffffffffffffffffffffffffffffffff1673ffffffffffffffffffffffffffffffffffffffff168152602001600182015481526020016002820160009054906101000a900460ff161515151581525050815260200190600101906200122c565b50505050815250509550600260008760200151815260200190815260200160002060009054906101000a900473ffffffffffffffffffffffffffffffffffffffff1694508560a001519350849250600091505b83518210156200166d5786881015801562001363575083828151811015156200135457fe5b90602001906020020151604001515b15620014ce576200139484838151811015156200137c57fe5b9060200190602002015160200151898b600262000903565b90508273ffffffffffffffffffffffffffffffffffffffff166323b872dd308685815181101515620013c257fe5b9060200190602002015160000151846040518463ffffffff167c0100000000000000000000000000000000000000000000000000000000028152600401808473ffffffffffffffffffffffffffffffffffffffff1673ffffffffffffffffffffffffffffffffffffffff1681526020018373ffffffffffffffffffffffffffffffffffffffff1673ffffffffffffffffffffffffffffffffffffffff1681526020018281526020019350505050602060405180830381600087803b1580156200148a57600080fd5b505af11580156200149f573d6000803e3d6000fd5b505050506040513d6020811015620014b657600080fd5b8101908080519060200190929190505050506200165f565b8787118015620014f857508382815181101515620014e857fe5b9060200190602002015160400151155b156200165e576200152984838151811015156200151157fe5b9060200190602002015160200151888a600262000903565b90508273ffffffffffffffffffffffffffffffffffffffff166323b872dd3086858151811015156200155757fe5b9060200190602002015160000151846040518463ffffffff167c0100000000000000000000000000000000000000000000000000000000028152600401808473ffffffffffffffffffffffffffffffffffffffff1673ffffffffffffffffffffffffffffffffffffffff1681526020018373ffffffffffffffffffffffffffffffffffffffff1673ffffffffffffffffffffffffffffffffffffffff1681526020018281526020019350505050602060405180830381600087803b1580156200161f57600080fd5b505af115801562001634573d6000803e3d6000fd5b505050506040513d60208110156200164b57600080fd5b8101908080519060200190929190505050505b5b81806001019250506200132f565b8787111562001759578273ffffffffffffffffffffffffffffffffffffffff16639dc29fac30896040518363ffffffff167c0100000000000000000000000000000000000000000000000000000000028152600401808373ffffffffffffffffffffffffffffffffffffffff1673ffffffffffffffffffffffffffffffffffffffff16815260200182815260200192505050602060405180830381600087803b1580156200171a57600080fd5b505af11580156200172f573d6000803e3d6000fd5b505050506040513d60208110156200174657600080fd5b8101908080519060200190929190505050505b50505050505050505050565b6000818302905060008314806200178757508183828115156200178457fe5b04145b15156200179357600080fd5b92915050565b6000600260006003600087815260200190815260200160002060010154815260200190815260200160002060009054906101000a900473ffffffffffffffffffffffffffffffffffffffff1690508073ffffffffffffffffffffffffffffffffffffffff166323b872dd3330856040518463ffffffff167c0100000000000000000000000000000000000000000000000000000000028152600401808473ffffffffffffffffffffffffffffffffffffffff1673ffffffffffffffffffffffffffffffffffffffff1681526020018373ffffffffffffffffffffffffffffffffffffffff1673ffffffffffffffffffffffffffffffffffffffff1681526020018281526020019350505050602060405180830381600087803b158015620018bf57600080fd5b505af1158015620018d4573d6000803e3d6000fd5b505050506040513d6020811015620018eb57600080fd5b8101908080519060200190929190505050506200190b8433848662001c54565b50505050565b600081830190508281101515156200192857600080fd5b92915050565b6060600062001941600154600162001911565b6001819055506200195e6200195860015462000e48565b62001d57565b91503482846200196d62001eac565b808060200180602001838103835285818151815260200191508051906020019080838360005b83811015620019b057808201518184015260208101905062001993565b50505050905090810190601f168015620019de5780820380516001836020036101000a031916815260200191505b50838103825284818151815260200191508051906020019080838360005b8381101562001a19578082015181840152602081019050620019fc565b50505050905090810190601f16801562001a475780820380516001836020036101000a031916815260200191505b509450505050506040518091039082f08015801562001a6a573d6000803e3d6000fd5b50905090508060026000600154815260200190815260200160002060006101000a81548173ffffffffffffffffffffffffffffffffffffffff021916908373ffffffffffffffffffffffffffffffffffffffff16021790555062001ad2600054600162001911565b6000819055507f52a20d7a043880fc99942f4c7e2009b9cdb20861120ac888179064fd503bbf926001546040518082815260200191505060405180910390a162001b256000546001548586333462001b2a565b505050565b60008060b4420191507f0c694c702f8f4e65423efa574b0d5d01013bfb3e8677a807a89f434ffdae69be8883604051808381526020018281526020019250505060405180910390a1600360008981526020019081526020016000209050838160000160006101000a81548173ffffffffffffffffffffffffffffffffffffffff021916908373ffffffffffffffffffffffffffffffffffffffff1602179055508681600101819055508581600201908051906020019062001bed92919062001ebd565b508181600301819055508481600401908051906020019062001c1192919062001ebd565b5062001c2e888560028681151562001c2557fe5b04600162001c54565b62001c4a888560028681151562001c4157fe5b04600062001c54565b5050505050505050565b600062001c6062001f44565b6003600087815260200190815260200160002091506060604051908101604052808673ffffffffffffffffffffffffffffffffffffffff168152602001858152602001841515815250905081600501819080600181540180825580915050906001820390600052602060002090600302016000909192909190915060008201518160000160006101000a81548173ffffffffffffffffffffffffffffffffffffffff021916908373ffffffffffffffffffffffffffffffffffffffff1602179055506020820151816001015560408201518160020160006101000a81548160ff021916908315150217905550505050505050505050565b60608060008060206040519080825280601f01601f19166020018201604052801562001d925781602001602082028038833980820191505090505b509250600091505b602082101562001e54578160080260020a856001900402600102905060007f010000000000000000000000000000000000000000000000000000000000000002817effffffffffffffffffffffffffffffffffffffffffffffffffffffffffffff191614151562001e465780838381518110151562001e1557fe5b9060200101907effffffffffffffffffffffffffffffffffffffffffffffffffffffffffffff1916908160001a9053505b818060010192505062001d9a565b829350505050919050565b60c060405190810160405280600073ffffffffffffffffffffffffffffffffffffffff16815260200160008152602001606081526020016000815260200160608152602001606081525090565b6040516116c78062001fa783390190565b828054600181600116156101000203166002900490600052602060002090601f016020900481019282601f1062001f0057805160ff191683800117855562001f31565b8280016001018555821562001f31579182015b8281111562001f3057825182559160200191906001019062001f13565b5b50905062001f40919062001f7e565b5090565b606060405190810160405280600073ffffffffffffffffffffffffffffffffffffffff168152602001600081526020016000151581525090565b62001fa391905b8082111562001f9f57600081600090555060010162001f85565b5090565b9056006080604052604051620016c7380380620016c7833981018060405281019080805182019291906020018051820192919050505081600090805190602001906200004a9291906200013d565b508060019080519060200190620000639291906200013d565b506012600260006101000a81548160ff021916908360ff16021790555034600381905550600354600560003373ffffffffffffffffffffffffffffffffffffffff1673ffffffffffffffffffffffffffffffffffffffff168152602001908152602001600020819055503373ffffffffffffffffffffffffffffffffffffffff16600073ffffffffffffffffffffffffffffffffffffffff167fddf252ad1be2c89b69c2b068fc378daa952ba7f163c4a11628f55a4df523b3ef6003546040518082815260200191505060405180910390a35050620001ec565b828054600181600116156101000203166002900490600052602060002090601f016020900481019282601f106200018057805160ff1916838001178555620001b1565b82800160010185558215620001b1579182015b82811115620001b057825182559160200191906001019062000193565b5b509050620001c09190620001c4565b5090565b620001e991905b80821115620001e5576000816000905550600101620001cb565b5090565b90565b6114cb80620001fc6000396000f3006080604052600436106100fc576000357c0100000000000000000000000000000000000000000000000000000000900463ffffffff16806306fdde0314610101578063095ea7b31461019157806318160ddd146101f65780632004ffd91461022157806323b872dd1461022b578063313ce567146102b057806337e9c7fa146102e15780633eaaf86b1461034057806370a082311461036b57806395d89b41146103c25780639dc29fac146104525780639e35a8be146104b7578063a293d1e8146104ce578063a9059cbb14610519578063b5931f7c1461057e578063d05c78da146105c9578063dd62ed3e14610614578063e6cb90131461068b575b600080fd5b34801561010d57600080fd5b506101166106d6565b6040518080602001828103825283818151815260200191508051906020019080838360005b8381101561015657808201518184015260208101905061013b565b50505050905090810190601f1680156101835780820380516001836020036101000a031916815260200191505b509250505060405180910390f35b34801561019d57600080fd5b506101dc600480360381019080803573ffffffffffffffffffffffffffffffffffffffff16906020019092919080359060200190929190505050610774565b604051808215151515815260200191505060405180910390f35b34801561020257600080fd5b5061020b610866565b6040518082815260200191505060405180910390f35b6102296108b1565b005b34801561023757600080fd5b50610296600480360381019080803573ffffffffffffffffffffffffffffffffffffffff169060200190929190803573ffffffffffffffffffffffffffffffffffffffff169060200190929190803590602001909291905050506109b7565b604051808215151515815260200191505060405180910390f35b3480156102bc57600080fd5b506102c5610b4a565b604051808260ff1660ff16815260200191505060405180910390f35b3480156102ed57600080fd5b5061032a60048036038101908080359060200190929190803590602001909291908035906020019092919080359060200190929190505050610b5d565b6040518082815260200191505060405180910390f35b34801561034c57600080fd5b50610355610bb1565b6040518082815260200191505060405180910390f35b34801561037757600080fd5b506103ac600480360381019080803573ffffffffffffffffffffffffffffffffffffffff169060200190929190505050610bb7565b6040518082815260200191505060405180910390f35b3480156103ce57600080fd5b506103d7610c00565b6040518080602001828103825283818151815260200191508051906020019080838360005b838110156104175780820151818401526020810190506103fc565b50505050905090810190601f1680156104445780820380516001836020036101000a031916815260200191505b509250505060405180910390f35b34801561045e57600080fd5b5061049d600480360381019080803573ffffffffffffffffffffffffffffffffffffffff16906020019092919080359060200190929190505050610c9e565b604051808215151515815260200191505060405180910390f35b3480156104c357600080fd5b506104cc610d36565b005b3480156104da57600080fd5b506105036004803603810190808035906020019092919080359060200190929190505050611049565b6040518082815260200191505060405180910390f35b34801561052557600080fd5b50610564600480360381019080803573ffffffffffffffffffffffffffffffffffffffff16906020019092919080359060200190929190505050611065565b604051808215151515815260200191505060405180910390f35b34801561058a57600080fd5b506105b360048036038101908080359060200190929190803590602001909291905050506111ee565b6040518082815260200191505060405180910390f35b3480156105d557600080fd5b506105fe6004803603810190808035906020019092919080359060200190929190505050611212565b6040518082815260200191505060405180910390f35b34801561062057600080fd5b50610675600480360381019080803573ffffffffffffffffffffffffffffffffffffffff169060200190929190803573ffffffffffffffffffffffffffffffffffffffff169060200190929190505050611243565b6040518082815260200191505060405180910390f35b34801561069757600080fd5b506106c060048036038101908080359060200190929190803590602001909291905050506112ca565b6040518082815260200191505060405180910390f35b60018054600181600116156101000203166002900480601f01602080910402602001604051908101604052809291908181526020018280546001816001161561010002031660029004801561076c5780601f106107415761010080835404028352916020019161076c565b820191906000526020600020905b81548152906001019060200180831161074f57829003601f168201915b505050505081565b600081600660003373ffffffffffffffffffffffffffffffffffffffff1673ffffffffffffffffffffffffffffffffffffffff16815260200190815260200160002060008573ffffffffffffffffffffffffffffffffffffffff1673ffffffffffffffffffffffffffffffffffffffff168152602001908152602001600020819055508273ffffffffffffffffffffffffffffffffffffffff163373ffffffffffffffffffffffffffffffffffffffff167f8c5be1e5ebec7d5bd14f71427d1e84f3dd0314c0f7b2291e5b200ac8c7c3b925846040518082815260200191505060405180910390a36001905092915050565b6000600560008073ffffffffffffffffffffffffffffffffffffffff1673ffffffffffffffffffffffffffffffffffffffff1681526020019081526020016000205460035403905090565b6108fa600560003373ffffffffffffffffffffffffffffffffffffffff1673ffffffffffffffffffffffffffffffffffffffff16815260200190815260200160002054346112ca565b600560003373ffffffffffffffffffffffffffffffffffffffff1673ffffffffffffffffffffffffffffffffffffffff16815260200190815260200160002081905550610949600354346112ca565b6003819055503373ffffffffffffffffffffffffffffffffffffffff16600073ffffffffffffffffffffffffffffffffffffffff167fddf252ad1be2c89b69c2b068fc378daa952ba7f163c4a11628f55a4df523b3ef346040518082815260200191505060405180910390a3565b6000610a02600560008673ffffffffffffffffffffffffffffffffffffffff1673ffffffffffffffffffffffffffffffffffffffff1681526020019081526020016000205483611049565b600560008673ffffffffffffffffffffffffffffffffffffffff1673ffffffffffffffffffffffffffffffffffffffff16815260200190815260200160002081905550610a8e600560008573ffffffffffffffffffffffffffffffffffffffff1673ffffffffffffffffffffffffffffffffffffffff16815260200190815260200160002054836112ca565b600560008573ffffffffffffffffffffffffffffffffffffffff1673ffffffffffffffffffffffffffffffffffffffff16815260200190815260200160002081905550610ada836112e6565b8273ffffffffffffffffffffffffffffffffffffffff168473ffffffffffffffffffffffffffffffffffffffff167fddf252ad1be2c89b69c2b068fc378daa952ba7f163c4a11628f55a4df523b3ef846040518082815260200191505060405180910390a3600190509392505050565b600260009054906101000a900460ff1681565b600080600080600086111515610b7257600080fd5b8685600a0a8902811515610b8257fe5b04925084600a0a8602915060028502600a0a905080828402811515610ba357fe5b049350505050949350505050565b60035481565b6000600560008373ffffffffffffffffffffffffffffffffffffffff1673ffffffffffffffffffffffffffffffffffffffff168152602001908152602001600020549050919050565b60008054600181600116156101000203166002900480601f016020809104026020016040519081016040528092919081815260200182805460018160011615610100020316600290048015610c965780601f10610c6b57610100808354040283529160200191610c96565b820191906000526020600020905b815481529060010190602001808311610c7957829003601f168201915b505050505081565b6000610ce9600560008573ffffffffffffffffffffffffffffffffffffffff1673ffffffffffffffffffffffffffffffffffffffff1681526020019081526020016000205483611049565b600560008573ffffffffffffffffffffffffffffffffffffffff1673ffffffffffffffffffffffffffffffffffffffff168152602001908152602001600020819055506001905092915050565b6000806000803073ffffffffffffffffffffffffffffffffffffffff163192507fdb5c17b17041a00e40c40ddc3406875c8676803e3a2a50a47f7c56109b8846536004805490506040518082815260200191505060405180910390a1600090505b6004805490508110156110435760056000600483815481101515610db757fe5b9060005260206000200160009054906101000a900473ffffffffffffffffffffffffffffffffffffffff1673ffffffffffffffffffffffffffffffffffffffff1673ffffffffffffffffffffffffffffffffffffffff1681526020019081526020016000205491507fbd89496239d1aac26b8dc32bbcb5b343e789c57225a62067cbc6a8b316048c1f600482815481101515610e4f57fe5b9060005260206000200160009054906101000a900473ffffffffffffffffffffffffffffffffffffffff1683604051808373ffffffffffffffffffffffffffffffffffffffff1673ffffffffffffffffffffffffffffffffffffffff1681526020018281526020019250505060405180910390a1600082111561103657610edb82600354856002610b5d565b93506000841115610eed576001840393505b7f60340ff6b6843180b78e123fae24a7c30124a91d61fc3502600eec09e45b593b600482815481101515610f1d57fe5b9060005260206000200160009054906101000a900473ffffffffffffffffffffffffffffffffffffffff16836003548688604051808673ffffffffffffffffffffffffffffffffffffffff1673ffffffffffffffffffffffffffffffffffffffff1681526020018581526020018481526020018381526020018281526020019550505050505060405180910390a1600084111561103557600481815481101515610fc357fe5b9060005260206000200160009054906101000a900473ffffffffffffffffffffffffffffffffffffffff1673ffffffffffffffffffffffffffffffffffffffff166108fc859081150290604051600060405180830381858888f19350505050158015611033573d6000803e3d6000fd5b505b5b8080600101915050610d97565b50505050565b600082821115151561105a57600080fd5b818303905092915050565b60006110b0600560003373ffffffffffffffffffffffffffffffffffffffff1673ffffffffffffffffffffffffffffffffffffffff1681526020019081526020016000205483611049565b600560003373ffffffffffffffffffffffffffffffffffffffff1673ffffffffffffffffffffffffffffffffffffffff1681526020019081526020016000208190555061113c600560008573ffffffffffffffffffffffffffffffffffffffff1673ffffffffffffffffffffffffffffffffffffffff16815260200190815260200160002054836112ca565b600560008573ffffffffffffffffffffffffffffffffffffffff1673ffffffffffffffffffffffffffffffffffffffff168152602001908152602001600020819055508273ffffffffffffffffffffffffffffffffffffffff163373ffffffffffffffffffffffffffffffffffffffff167fddf252ad1be2c89b69c2b068fc378daa952ba7f163c4a11628f55a4df523b3ef846040518082815260200191505060405180910390a36001905092915050565b600080821115156111fe57600080fd5b818381151561120957fe5b04905092915050565b600081830290506000831480611232575081838281151561122f57fe5b04145b151561123d57600080fd5b92915050565b6000600660008473ffffffffffffffffffffffffffffffffffffffff1673ffffffffffffffffffffffffffffffffffffffff16815260200190815260200160002060008373ffffffffffffffffffffffffffffffffffffffff1673ffffffffffffffffffffffffffffffffffffffff16815260200190815260200160002054905092915050565b600081830190508281101515156112e057600080fd5b92915050565b6000806000600560008573ffffffffffffffffffffffffffffffffffffffff1673ffffffffffffffffffffffffffffffffffffffff16815260200190815260200160002054925060009150600090505b6004805490508110156113c2578373ffffffffffffffffffffffffffffffffffffffff1660048281548110151561136957fe5b9060005260206000200160009054906101000a900473ffffffffffffffffffffffffffffffffffffffff1673ffffffffffffffffffffffffffffffffffffffff1614156113b557600191505b8080600101915050611336565b6000151582151514156114995760048490806001815401808255809150509060018203906000526020600020016000909192909190916101000a81548173ffffffffffffffffffffffffffffffffffffffff021916908373ffffffffffffffffffffffffffffffffffffffff160217905550507f9c12b8c530e38690083f6a015377e53f2d684153c65b58318cad7e8d0c9d6c8d84604051808273ffffffffffffffffffffffffffffffffffffffff1673ffffffffffffffffffffffffffffffffffffffff16815260200191505060405180910390a15b505050505600a165627a7a72305820fe28934bb555207b571fc75cc7dea43302fd10cc9337ceed9decfd73dee2036a0029a165627a7a723058209eb5e5491e6b2d591c8eedf253055207d11118d36d8746947772201df51391cb0029",
  "source": "pragma solidity ^0.4.24;\n\nimport \"./SafeMath.sol\";\nimport \"./REP.sol\";\n\ncontract SemadaCore is SafeMath {\n\n  uint256 public proposalIndex;\n  uint256 public tokenNumberIndex;\n\n  mapping(uint256 => address) erc20SymbolAddresses;\n\n  struct Vote {\n    address from;\n    uint256 rep;\n    bool vote;\n  }\n\n  struct Pool { \n    address from;  \n    uint256 tokenNumberIndex;\n    string name; \n    uint256 timeout;  \n    string evidence;  \n    Vote[] votes;\n  }\n\n  mapping(uint256 => Pool) validationPool;\n  \n  event NewProposalCreated(uint256 proposalIndex, uint256 timeout);\n  event NewDaoCreated(uint256 tokenNumberIndex);\n  event SemadaInfo(string message);\n  event SemDistributed(address to, uint256 value);\n  event ProposalStatus(string status, uint256 yesRepStaked, uint256 noRepStaked);\n  event SafeMessage(string msg, uint a, uint b, uint c, uint precision, uint balance);\n\n  function getTokenAddress(uint256 _tokenNumberIndex) \n  public view returns (address tokenAddress){\n    \n    return erc20SymbolAddresses[_tokenNumberIndex];\n  }\n\n  function getProposalVotes(uint256 _proposalIndex) view \n  public returns (uint, uint256, uint256) {\n    \n    Pool memory pool = validationPool[_proposalIndex];\n    \n    uint status = 1;\n    uint256 totalRep = 0;\n    uint256 totalYesRep = 0;\n    Vote[] memory votes = pool.votes;\n    \n    for(uint i = 0; i < votes.length; i++){\n      totalRep = safeAdd(totalRep, votes[i].rep);\n      if(votes[i].vote){\n        totalYesRep = safeAdd(totalYesRep, votes[i].rep);\n      }\n    }\n    \n    // TODO: handle timeout case\n    \n    if(now >= pool.timeout){\n      if(totalYesRep >= safeDiv(totalRep, 2)){\n        status = 2;\n      } else {\n        status = 3;\n      }\n    } else {\n      status = 1;\n    } \n    \n    return (\n      status,\n      totalYesRep,\n      totalRep - totalYesRep\n      );\n  }\n  \n  function getVote(uint256 _proposalIndex, uint256 _voteIndex) view\n  public returns (address, uint256, bool) {\n    return (validationPool[_proposalIndex].votes[_voteIndex].from,\n      validationPool[_proposalIndex].votes[_voteIndex].rep,\n      validationPool[_proposalIndex].votes[_voteIndex].vote);\n  }\n\n  function joinDao(uint256 _tokenNumberIndex) \n  public payable {\n\n    proposalIndex = safeAdd(proposalIndex, 1);\n      \n    REP rep = REP(erc20SymbolAddresses[_tokenNumberIndex]);\n    rep.mintToken.value(msg.value)();\n    \n    newProposalInternal(\n      proposalIndex,\n      _tokenNumberIndex, \n      \"Join DAO\",\n      \"Join DAO\",\n      msg.sender, \n      msg.value);\n  }\n  \n  function bytes32ToString (bytes32 data) internal pure returns (string) {\n    bytes memory bytesString = new bytes(32);\n    for (uint j=0; j<32; j++) {\n      byte char = byte(bytes32(uint(data) * 2 ** (8 * j)));\n      if (char != 0) {\n          bytesString[j] = char;\n      }\n    }\n    return string(bytesString);\n  }\n\n  function uintToBytes(uint v) pure returns (bytes32 ret) {\n    if (v == 0) {\n        ret = '0';\n    }\n    else {\n        while (v > 0) {\n            ret = bytes32(uint(ret) / (2 ** 8));\n            ret |= bytes32(((v % 10) + 48) * 2 ** (8 * 31));\n            v /= 10;\n        }\n    }\n    return ret;\n  }\n\n \n  function createDao(string _tokenName) \n  public payable {\n    \n    tokenNumberIndex = safeAdd(tokenNumberIndex, 1);\n    \n    string memory _tokenSymbol = \n      bytes32ToString(uintToBytes(tokenNumberIndex));\n      \n    address _tokenAddress = \n      (new REP).value(msg.value)(_tokenSymbol, _tokenName);\n      \n    erc20SymbolAddresses[tokenNumberIndex] = _tokenAddress;\n    \n    proposalIndex = safeAdd(proposalIndex, 1);\n    \n    emit NewDaoCreated(tokenNumberIndex);\n        \n    newProposalInternal(\n      proposalIndex,\n      tokenNumberIndex, \n      _tokenName, \n      _tokenName,\n      msg.sender,\n      msg.value);    \n  }\n  \n  function newProposal(\n    uint256 _tokenNumberIndex,\n    string _proposalName,\n    string _proposalEvidence\n    ) public payable {\n      \n    proposalIndex = safeAdd(proposalIndex, 1);\n\n    REP rep = REP(erc20SymbolAddresses[_tokenNumberIndex]);\n    rep.mintToken.value(msg.value)();\n    \n    newProposalInternal(\n      proposalIndex,\n      _tokenNumberIndex,\n      _proposalName,\n      _proposalEvidence,\n      msg.sender,\n      msg.value);\n  }\n  \n  function newProposalInternal(\n    uint256 _proposalIndex,\n    uint256 _tokenNumberIndex, \n    string _proposalName, \n    string _proposalEvidence,\n    address _from,\n    uint256 _value) internal {\n    \n    //setting timeout to 180 seconds from now\n    uint256 _timeout = now + 180;\n    emit NewProposalCreated(_proposalIndex, _timeout);\n\n    Pool storage pool = validationPool[_proposalIndex];\n    pool.from = _from;\n    pool.tokenNumberIndex = _tokenNumberIndex;\n    pool.name = _proposalName;\n    pool.timeout = _timeout;\n    pool.evidence = _proposalEvidence;\n\n    voteInternal(_proposalIndex, _from, (_value / 2), true);\n    //TODO: should false vote be 0 account?\n    voteInternal(_proposalIndex, _from, (_value / 2), false);\n  }\n  \n  function vote(\n    uint256 _proposalIndex,\n    bool _vote,\n    uint _rep\n    ) public {\n    REP rep = REP(erc20SymbolAddresses[validationPool[_proposalIndex].tokenNumberIndex]);\n    rep.transferFrom(msg.sender, this, _rep);\n    \n    voteInternal(\n      _proposalIndex,\n      msg.sender,\n      _rep,\n      _vote\n    );\n      \n  }\n  \n  function voteInternal(\n    uint256 _proposalIndex, \n    address _from,\n    uint256 _value,\n    bool _vote\n    ) internal {\n    \n    Pool storage pool = validationPool[_proposalIndex];\n      \n    Vote memory newVote = Vote({from:_from, rep:_value, vote:_vote});\n    \n    pool.votes.push(newVote);\n  }\n  \n\n  function distributeRep(uint256 _proposalIndex,\n    uint256 _totalRepStaked, \n    uint256 _yesRepStaked, \n    uint256 _noRepStaked) public {\n      \n    Pool memory pool = validationPool[_proposalIndex];\n    address tokenAddress;\n    tokenAddress = erc20SymbolAddresses[pool.tokenNumberIndex];\n    Vote[] memory votes = pool.votes;\n    \n    REP rep = REP(tokenAddress);\n  \n    for(uint j = 0; j < votes.length; j++){\n      uint256 betAmtWon;\n      if(_yesRepStaked >= _noRepStaked && votes[j].vote){\n        \n        betAmtWon = safePercentageOf(votes[j].rep, \n          _yesRepStaked, _totalRepStaked, 2);\n          \n        rep.transferFrom(this, votes[j].from, betAmtWon);\n      } else if (_noRepStaked > _yesRepStaked && !votes[j].vote){\n        \n        betAmtWon = safePercentageOf(votes[j].rep, \n          _noRepStaked, _yesRepStaked, 2);\n          \n        rep.transferFrom(this, votes[j].from, betAmtWon);\n      }\n    }\n    \n    //slash the no REP if NO wins.\n    if(_noRepStaked > _yesRepStaked) {\n      rep.burn(this, _noRepStaked);\n    }\n  }\n  \n  function distributeSem(uint256 _tokenNumberIndex) public {\n    address tokenAddress = erc20SymbolAddresses[_tokenNumberIndex];\n    REP rep = REP(tokenAddress);\n    emit SemadaInfo(\"DIST SEM\");\n    rep.distributeSem();\n  }\n}",
  "sourcePath": "/Users/josh/Projects/Node/semada-demo/contracts/SemadaCore.sol",
  "compiler": {
    "name": "solc",
    "version": "0.4.24+commit.e67f0147.Emscripten.clang"
  },
  "schemaVersion": "2.0.1",
  "updatedAt": "2018-10-22T16:32:11.982Z"
}