{
  "contractName": "SemadaCore",
  "abi": [
    {
      "constant": true,
      "inputs": [],
      "name": "tokenNumberIndex",
      "outputs": [
        {
          "name": "",
          "type": "uint256"
        }
      ],
      "payable": false,
      "stateMutability": "view",
      "type": "function"
    },
    {
      "constant": false,
      "inputs": [
        {
          "name": "a",
          "type": "uint256"
        },
        {
          "name": "b",
          "type": "uint256"
        },
        {
          "name": "c",
          "type": "uint256"
        },
        {
          "name": "precision",
          "type": "uint256"
        }
      ],
      "name": "safePercentageOf",
      "outputs": [
        {
          "name": "q",
          "type": "uint256"
        }
      ],
      "payable": false,
      "stateMutability": "nonpayable",
      "type": "function"
    },
    {
      "constant": true,
      "inputs": [],
      "name": "proposalIndex",
      "outputs": [
        {
          "name": "",
          "type": "uint256"
        }
      ],
      "payable": false,
      "stateMutability": "view",
      "type": "function"
    },
    {
      "constant": true,
      "inputs": [
        {
          "name": "a",
          "type": "uint256"
        },
        {
          "name": "b",
          "type": "uint256"
        }
      ],
      "name": "safeSub",
      "outputs": [
        {
          "name": "c",
          "type": "uint256"
        }
      ],
      "payable": false,
      "stateMutability": "pure",
      "type": "function"
    },
    {
      "constant": true,
      "inputs": [
        {
          "name": "a",
          "type": "uint256"
        },
        {
          "name": "b",
          "type": "uint256"
        }
      ],
      "name": "safeDiv",
      "outputs": [
        {
          "name": "c",
          "type": "uint256"
        }
      ],
      "payable": false,
      "stateMutability": "pure",
      "type": "function"
    },
    {
      "constant": true,
      "inputs": [
        {
          "name": "a",
          "type": "uint256"
        },
        {
          "name": "b",
          "type": "uint256"
        }
      ],
      "name": "safeMul",
      "outputs": [
        {
          "name": "c",
          "type": "uint256"
        }
      ],
      "payable": false,
      "stateMutability": "pure",
      "type": "function"
    },
    {
      "constant": true,
      "inputs": [
        {
          "name": "a",
          "type": "uint256"
        },
        {
          "name": "b",
          "type": "uint256"
        }
      ],
      "name": "safeAdd",
      "outputs": [
        {
          "name": "c",
          "type": "uint256"
        }
      ],
      "payable": false,
      "stateMutability": "pure",
      "type": "function"
    },
    {
      "anonymous": false,
      "inputs": [
        {
          "indexed": false,
          "name": "proposalIndex",
          "type": "uint256"
        },
        {
          "indexed": false,
          "name": "timeout",
          "type": "uint256"
        }
      ],
      "name": "NewProposalCreated",
      "type": "event"
    },
    {
      "anonymous": false,
      "inputs": [
        {
          "indexed": false,
          "name": "tokenNumberIndex",
          "type": "uint256"
        }
      ],
      "name": "NewDaoCreated",
      "type": "event"
    },
    {
      "anonymous": false,
      "inputs": [
        {
          "indexed": false,
          "name": "message",
          "type": "string"
        }
      ],
      "name": "SemadaInfo",
      "type": "event"
    },
    {
      "anonymous": false,
      "inputs": [
        {
          "indexed": false,
          "name": "message",
          "type": "uint256"
        }
      ],
      "name": "SemadaInfoUint",
      "type": "event"
    },
    {
      "anonymous": false,
      "inputs": [
        {
          "indexed": false,
          "name": "to",
          "type": "address"
        },
        {
          "indexed": false,
          "name": "value",
          "type": "uint256"
        }
      ],
      "name": "SemDistributed",
      "type": "event"
    },
    {
      "anonymous": false,
      "inputs": [
        {
          "indexed": false,
          "name": "status",
          "type": "string"
        },
        {
          "indexed": false,
          "name": "yesRepStaked",
          "type": "uint256"
        },
        {
          "indexed": false,
          "name": "noRepStaked",
          "type": "uint256"
        }
      ],
      "name": "ProposalStatus",
      "type": "event"
    },
    {
      "anonymous": false,
      "inputs": [
        {
          "indexed": false,
          "name": "msg",
          "type": "string"
        },
        {
          "indexed": false,
          "name": "a",
          "type": "uint256"
        },
        {
          "indexed": false,
          "name": "b",
          "type": "uint256"
        },
        {
          "indexed": false,
          "name": "c",
          "type": "uint256"
        },
        {
          "indexed": false,
          "name": "precision",
          "type": "uint256"
        },
        {
          "indexed": false,
          "name": "balance",
          "type": "uint256"
        }
      ],
      "name": "SafeMessage",
      "type": "event"
    },
    {
      "constant": true,
      "inputs": [
        {
          "name": "_tokenNumberIndex",
          "type": "uint256"
        }
      ],
      "name": "getTokenAddress",
      "outputs": [
        {
          "name": "tokenAddress",
          "type": "address"
        }
      ],
      "payable": false,
      "stateMutability": "view",
      "type": "function"
    },
    {
      "constant": true,
      "inputs": [
        {
          "name": "_proposalIndex",
          "type": "uint256"
        }
      ],
      "name": "getProposalVotes",
      "outputs": [
        {
          "name": "",
          "type": "uint256"
        },
        {
          "name": "",
          "type": "uint256"
        },
        {
          "name": "",
          "type": "uint256"
        },
        {
          "name": "",
          "type": "uint256"
        }
      ],
      "payable": false,
      "stateMutability": "view",
      "type": "function"
    },
    {
      "constant": true,
      "inputs": [
        {
          "name": "_proposalIndex",
          "type": "uint256"
        },
        {
          "name": "_voteIndex",
          "type": "uint256"
        }
      ],
      "name": "getVote",
      "outputs": [
        {
          "name": "",
          "type": "address"
        },
        {
          "name": "",
          "type": "uint256"
        },
        {
          "name": "",
          "type": "bool"
        }
      ],
      "payable": false,
      "stateMutability": "view",
      "type": "function"
    },
    {
      "constant": false,
      "inputs": [
        {
          "name": "_tokenNumberIndex",
          "type": "uint256"
        }
      ],
      "name": "joinDao",
      "outputs": [],
      "payable": true,
      "stateMutability": "payable",
      "type": "function"
    },
    {
      "constant": true,
      "inputs": [
        {
          "name": "v",
          "type": "uint256"
        }
      ],
      "name": "uintToBytes",
      "outputs": [
        {
          "name": "ret",
          "type": "bytes32"
        }
      ],
      "payable": false,
      "stateMutability": "pure",
      "type": "function"
    },
    {
      "constant": false,
      "inputs": [
        {
          "name": "_tokenName",
          "type": "string"
        }
      ],
      "name": "createDao",
      "outputs": [],
      "payable": true,
      "stateMutability": "payable",
      "type": "function"
    },
    {
      "constant": false,
      "inputs": [
        {
          "name": "_tokenNumberIndex",
          "type": "uint256"
        },
        {
          "name": "_proposalName",
          "type": "string"
        },
        {
          "name": "_proposalEvidence",
          "type": "string"
        }
      ],
      "name": "newProposal",
      "outputs": [],
      "payable": true,
      "stateMutability": "payable",
      "type": "function"
    },
    {
      "constant": false,
      "inputs": [
        {
          "name": "_proposalIndex",
          "type": "uint256"
        },
        {
          "name": "_vote",
          "type": "bool"
        },
        {
          "name": "_rep",
          "type": "uint256"
        }
      ],
      "name": "vote",
      "outputs": [],
      "payable": false,
      "stateMutability": "nonpayable",
      "type": "function"
    },
    {
      "constant": false,
      "inputs": [
        {
          "name": "_proposalIndex",
          "type": "uint256"
        },
        {
          "name": "_totalRepStaked",
          "type": "uint256"
        },
        {
          "name": "_yesRepStaked",
          "type": "uint256"
        },
        {
          "name": "_noRepStaked",
          "type": "uint256"
        },
        {
          "name": "_noSlashRep",
          "type": "uint256"
        }
      ],
      "name": "distributeRep",
      "outputs": [],
      "payable": false,
      "stateMutability": "nonpayable",
      "type": "function"
    },
    {
      "constant": false,
      "inputs": [
        {
          "name": "_tokenNumberIndex",
          "type": "uint256"
        }
      ],
      "name": "distributeSem",
      "outputs": [],
      "payable": false,
      "stateMutability": "nonpayable",
      "type": "function"
    }
  ],
  "bytecode": "0x608060405234801561001057600080fd5b506138a1806100206000396000f30060806040526004361062000103576000357c0100000000000000000000000000000000000000000000000000000000900463ffffffff16806318084fd91462000108578063220df6fc146200012a57806322e6172e146200015a5780632c57c7ef14620001b257806337e9c7fa14620001e057806347c66140146200024257806349330cb8146200029b5780635977e0f2146200032757806367ccdf38146200035557806394e8767d14620003c5578063a293d1e81462000411578063b5931f7c146200045f578063c40b34fc14620004ad578063d05c78da146200055b578063d46a5d7e14620005a9578063e6cb901314620005ef578063ff5ffdbe146200063d575b600080fd5b62000128600480360381019080803590602001909291905050506200069b565b005b3480156200013757600080fd5b506200015860048036038101908080359060200190929190505050620007e7565b005b3480156200016757600080fd5b50620001b060048036038101908080359060200190929190803590602001909291908035906020019092919080359060200190929190803590602001909291905050506200090e565b005b348015620001bf57600080fd5b50620001ca6200113c565b6040518082815260200191505060405180910390f35b348015620001ed57600080fd5b506200022c6004803603810190808035906020019092919080359060200190929190803590602001909291908035906020019092919050505062001142565b6040518082815260200191505060405180910390f35b3480156200024f57600080fd5b50620002706004803603810190808035906020019092919050505062001199565b6040518085815260200184815260200183815260200182815260200194505050505060405180910390f35b348015620002a857600080fd5b50620002d3600480360381019080803590602001909291908035906020019092919050505062001625565b604051808473ffffffffffffffffffffffffffffffffffffffff1673ffffffffffffffffffffffffffffffffffffffff16815260200183815260200182151515158152602001935050505060405180910390f35b3480156200033457600080fd5b506200033f62001706565b6040518082815260200191505060405180910390f35b3480156200036257600080fd5b5062000383600480360381019080803590602001909291905050506200170c565b604051808273ffffffffffffffffffffffffffffffffffffffff1673ffffffffffffffffffffffffffffffffffffffff16815260200191505060405180910390f35b348015620003d257600080fd5b50620003f36004803603810190808035906020019092919050505062001749565b60405180826000191660001916815260200191505060405180910390f35b3480156200041e57600080fd5b50620004496004803603810190808035906020019092919080359060200190929190505050620017f9565b6040518082815260200191505060405180910390f35b3480156200046c57600080fd5b5062000497600480360381019080803590602001909291908035906020019092919050505062001816565b6040518082815260200191505060405180910390f35b6200055960048036038101908080359060200190929190803590602001908201803590602001908080601f0160208091040260200160405190810160405280939291908181526020018383808284378201915050505050509192919290803590602001908201803590602001908080601f01602080910402602001604051908101604052809392919081815260200183838082843782019150505050505091929192905050506200183c565b005b3480156200056857600080fd5b5062000593600480360381019080803590602001909291908035906020019092919050505062001920565b6040518082815260200191505060405180910390f35b348015620005b657600080fd5b50620005ed600480360381019080803590602001909291908035151590602001909291908035906020019092919050505062001954565b005b348015620005fc57600080fd5b5062000627600480360381019080803590602001909291908035906020019092919050505062001acc565b6040518082815260200191505060405180910390f35b62000699600480360381019080803590602001908201803590602001908080601f016020809104026020016040519081016040528093929190818152602001838380828437820191505050505050919291929050505062001ae9565b005b6000620006ac600054600162001acc565b6000819055506002600083815260200190815260200160002060009054906101000a900473ffffffffffffffffffffffffffffffffffffffff1690508073ffffffffffffffffffffffffffffffffffffffff16632004ffd9346040518263ffffffff167c01000000000000000000000000000000000000000000000000000000000281526004016000604051808303818588803b1580156200074d57600080fd5b505af115801562000762573d6000803e3d6000fd5b5050505050620007e3600054836040805190810160405280600881526020017f4a6f696e2044414f0000000000000000000000000000000000000000000000008152506040805190810160405280600881526020017f4a6f696e2044414f000000000000000000000000000000000000000000000000815250333462001ce5565b5050565b6000806002600084815260200190815260200160002060009054906101000a900473ffffffffffffffffffffffffffffffffffffffff1691508190507f9e5c2db33d1c99a65b4264a62e69eda49e5c72dfa2528b9809b0659047dbcbe16040518080602001828103825260088152602001807f444953542053454d00000000000000000000000000000000000000000000000081525060200191505060405180910390a18073ffffffffffffffffffffffffffffffffffffffff16639e35a8be6040518163ffffffff167c0100000000000000000000000000000000000000000000000000000000028152600401600060405180830381600087803b158015620008f057600080fd5b505af115801562000905573d6000803e3d6000fd5b50505050505050565b620009186200201b565b600060606000806000806000600360008e815260200190815260200160002060c060405190810160405290816000820160009054906101000a900473ffffffffffffffffffffffffffffffffffffffff1673ffffffffffffffffffffffffffffffffffffffff1673ffffffffffffffffffffffffffffffffffffffff16815260200160018201548152602001600282018054600181600116156101000203166002900480601f01602080910402602001604051908101604052809291908181526020018280546001816001161561010002031660029004801562000a405780601f1062000a145761010080835404028352916020019162000a40565b820191906000526020600020905b81548152906001019060200180831162000a2257829003601f168201915b5050505050815260200160038201548152602001600482018054600181600116156101000203166002900480601f01602080910402602001604051908101604052809291908181526020018280546001816001161561010002031660029004801562000af05780601f1062000ac45761010080835404028352916020019162000af0565b820191906000526020600020905b81548152906001019060200180831162000ad257829003601f168201915b5050505050815260200160058201805480602002602001604051908101604052809291908181526020016000905b8282101562000bce5783829060005260206000209060030201606060405190810160405290816000820160009054906101000a900473ffffffffffffffffffffffffffffffffffffffff1673ffffffffffffffffffffffffffffffffffffffff1673ffffffffffffffffffffffffffffffffffffffff168152602001600182015481526020016002820160009054906101000a900460ff1615151515815250508152602001906001019062000b1e565b50505050815250509750600260008960200151815260200190815260200160002060009054906101000a900473ffffffffffffffffffffffffffffffffffffffff1696508760a001519550869450600089111562000da9577f9e5c2db33d1c99a65b4264a62e69eda49e5c72dfa2528b9809b0659047dbcbe160405180806020018281038252600b8152602001807f6275726e696e672072657000000000000000000000000000000000000000000081525060200191505060405180910390a18473ffffffffffffffffffffffffffffffffffffffff16639dc29fac308b6040518363ffffffff167c0100000000000000000000000000000000000000000000000000000000028152600401808373ffffffffffffffffffffffffffffffffffffffff1673ffffffffffffffffffffffffffffffffffffffff16815260200182815260200192505050602060405180830381600087803b15801562000d3257600080fd5b505af115801562000d47573d6000803e3d6000fd5b505050506040513d602081101562000d5e57600080fd5b810190808051906020019092919050505092507fd32d79a995461a029f8031ab369e6c2de6649f7f27de974aec9ce5df17501884836040518082815260200191505060405180910390a15b600091505b85518210156200112d5760008914801562000de25750858281518110151562000dd357fe5b90602001906020020151604001515b1562000f4d5762000e13868381518110151562000dfb57fe5b90602001906020020151602001518c8e600262001142565b90508473ffffffffffffffffffffffffffffffffffffffff166323b872dd30888581518110151562000e4157fe5b9060200190602002015160000151846040518463ffffffff167c0100000000000000000000000000000000000000000000000000000000028152600401808473ffffffffffffffffffffffffffffffffffffffff1673ffffffffffffffffffffffffffffffffffffffff1681526020018373ffffffffffffffffffffffffffffffffffffffff1673ffffffffffffffffffffffffffffffffffffffff1681526020018281526020019350505050602060405180830381600087803b15801562000f0957600080fd5b505af115801562000f1e573d6000803e3d6000fd5b505050506040513d602081101562000f3557600080fd5b8101908080519060200190929190505050506200111f565b60008911801562000f785750858281518110151562000f6857fe5b9060200190602002015160400151155b801562000fb857506000868381518110151562000f9157fe5b906020019060200201516000015173ffffffffffffffffffffffffffffffffffffffff1614155b156200111e5762000fe9868381518110151562000fd157fe5b90602001906020020151602001518b8e600262001142565b90508473ffffffffffffffffffffffffffffffffffffffff166323b872dd3088858151811015156200101757fe5b9060200190602002015160000151846040518463ffffffff167c0100000000000000000000000000000000000000000000000000000000028152600401808473ffffffffffffffffffffffffffffffffffffffff1673ffffffffffffffffffffffffffffffffffffffff1681526020018373ffffffffffffffffffffffffffffffffffffffff1673ffffffffffffffffffffffffffffffffffffffff1681526020018281526020019350505050602060405180830381600087803b158015620010df57600080fd5b505af1158015620010f4573d6000803e3d6000fd5b505050506040513d60208110156200110b57600080fd5b8101908080519060200190929190505050505b5b818060010192505062000dae565b50505050505050505050505050565b60015481565b6000806000806000861115156200115857600080fd5b8685600a0a89028115156200116957fe5b04925084600a0a8602915060028502600a0a9050808284028115156200118b57fe5b049350505050949350505050565b600080600080620011a96200201b565b60008060008060606000600360008d815260200190815260200160002060c060405190810160405290816000820160009054906101000a900473ffffffffffffffffffffffffffffffffffffffff1673ffffffffffffffffffffffffffffffffffffffff1673ffffffffffffffffffffffffffffffffffffffff16815260200160018201548152602001600282018054600181600116156101000203166002900480601f016020809104026020016040519081016040528092919081815260200182805460018160011615610100020316600290048015620012cf5780601f10620012a357610100808354040283529160200191620012cf565b820191906000526020600020905b815481529060010190602001808311620012b157829003601f168201915b5050505050815260200160038201548152602001600482018054600181600116156101000203166002900480601f0160208091040260200160405190810160405280929190818152602001828054600181600116156101000203166002900480156200137f5780601f1062001353576101008083540402835291602001916200137f565b820191906000526020600020905b8154815290600101906020018083116200136157829003601f168201915b5050505050815260200160058201805480602002602001604051908101604052809291908181526020016000905b828210156200145d5783829060005260206000209060030201606060405190810160405290816000820160009054906101000a900473ffffffffffffffffffffffffffffffffffffffff1673ffffffffffffffffffffffffffffffffffffffff1673ffffffffffffffffffffffffffffffffffffffff168152602001600182015481526020016002820160009054906101000a900460ff16151515158152505081526020019060010190620013ad565b50505050815250509650600195506000945060009350600092508660a001519150600090505b81518110156200159c57620014b5858383815181101515620014a157fe5b906020019060200201516020015162001acc565b94508181815181101515620014c657fe5b9060200190602002015160400151156200150a5762001502848383815181101515620014ee57fe5b906020019060200201516020015162001acc565b93506200158e565b81818151811015156200151957fe5b9060200190602002015160400151158015620015675750600082828151811015156200154157fe5b906020019060200201516000015173ffffffffffffffffffffffffffffffffffffffff16145b156200158d5781818151811015156200157c57fe5b906020019060200201516020015192505b5b808060010191505062001483565b866060015142101515620015de57620015b785600262001816565b84101515620015ce576002955060009250620015d8565b6003955082850394505b62001609565b620015eb85600262001816565b84101515620015fe576000925062001604565b82850394505b600195505b8584858703859a509a509a509a50505050505050509193509193565b600080600060036000868152602001908152602001600020600501848154811015156200164e57fe5b906000526020600020906003020160000160009054906101000a900473ffffffffffffffffffffffffffffffffffffffff166003600087815260200190815260200160002060050185815481101515620016a457fe5b9060005260206000209060030201600101546003600088815260200190815260200160002060050186815481101515620016da57fe5b906000526020600020906003020160020160009054906101000a900460ff169250925092509250925092565b60005481565b60006002600083815260200190815260200160002060009054906101000a900473ffffffffffffffffffffffffffffffffffffffff169050919050565b6000808214156200177d577f30000000000000000000000000000000000000000000000000000000000000009050620017f1565b5b6000821115620017f05761010081600190048115156200179a57fe5b0460010290507f01000000000000000000000000000000000000000000000000000000000000006030600a84811515620017d057fe5b06010260010281179050600a82811515620017e757fe5b0491506200177e565b5b809050919050565b60008282111515156200180b57600080fd5b818303905092915050565b600080821115156200182757600080fd5b81838115156200183357fe5b04905092915050565b60006200184d600054600162001acc565b6000819055506002600085815260200190815260200160002060009054906101000a900473ffffffffffffffffffffffffffffffffffffffff1690508073ffffffffffffffffffffffffffffffffffffffff16632004ffd9346040518263ffffffff167c01000000000000000000000000000000000000000000000000000000000281526004016000604051808303818588803b158015620018ee57600080fd5b505af115801562001903573d6000803e3d6000fd5b50505050506200191a600054858585333462001ce5565b50505050565b6000818302905060008314806200194257508183828115156200193f57fe5b04145b15156200194e57600080fd5b92915050565b6000600260006003600087815260200190815260200160002060010154815260200190815260200160002060009054906101000a900473ffffffffffffffffffffffffffffffffffffffff1690508073ffffffffffffffffffffffffffffffffffffffff166323b872dd3330856040518463ffffffff167c0100000000000000000000000000000000000000000000000000000000028152600401808473ffffffffffffffffffffffffffffffffffffffff1673ffffffffffffffffffffffffffffffffffffffff1681526020018373ffffffffffffffffffffffffffffffffffffffff1673ffffffffffffffffffffffffffffffffffffffff1681526020018281526020019350505050602060405180830381600087803b15801562001a7a57600080fd5b505af115801562001a8f573d6000803e3d6000fd5b505050506040513d602081101562001aa657600080fd5b81019080805190602001909291905050505062001ac68433848662001e10565b50505050565b6000818301905082811015151562001ae357600080fd5b92915050565b6060600062001afc600154600162001acc565b60018190555062001b1962001b1360015462001749565b62001f13565b915034828462001b2862002068565b808060200180602001838103835285818151815260200191508051906020019080838360005b8381101562001b6b57808201518184015260208101905062001b4e565b50505050905090810190601f16801562001b995780820380516001836020036101000a031916815260200191505b50838103825284818151815260200191508051906020019080838360005b8381101562001bd457808201518184015260208101905062001bb7565b50505050905090810190601f16801562001c025780820380516001836020036101000a031916815260200191505b509450505050506040518091039082f08015801562001c25573d6000803e3d6000fd5b50905090508060026000600154815260200190815260200160002060006101000a81548173ffffffffffffffffffffffffffffffffffffffff021916908373ffffffffffffffffffffffffffffffffffffffff16021790555062001c8d600054600162001acc565b6000819055507f52a20d7a043880fc99942f4c7e2009b9cdb20861120ac888179064fd503bbf926001546040518082815260200191505060405180910390a162001ce06000546001548586333462001ce5565b505050565b60008060b4420191507f0c694c702f8f4e65423efa574b0d5d01013bfb3e8677a807a89f434ffdae69be8883604051808381526020018281526020019250505060405180910390a1600360008981526020019081526020016000209050838160000160006101000a81548173ffffffffffffffffffffffffffffffffffffffff021916908373ffffffffffffffffffffffffffffffffffffffff1602179055508681600101819055508581600201908051906020019062001da892919062002079565b508181600301819055508481600401908051906020019062001dcc92919062002079565b5062001de9888560028681151562001de057fe5b04600162001e10565b62001e0688600060028681151562001dfd57fe5b04600062001e10565b5050505050505050565b600062001e1c62002100565b6003600087815260200190815260200160002091506060604051908101604052808673ffffffffffffffffffffffffffffffffffffffff168152602001858152602001841515815250905081600501819080600181540180825580915050906001820390600052602060002090600302016000909192909190915060008201518160000160006101000a81548173ffffffffffffffffffffffffffffffffffffffff021916908373ffffffffffffffffffffffffffffffffffffffff1602179055506020820151816001015560408201518160020160006101000a81548160ff021916908315150217905550505050505050505050565b60608060008060206040519080825280601f01601f19166020018201604052801562001f4e5781602001602082028038833980820191505090505b509250600091505b602082101562002010578160080260020a856001900402600102905060007f010000000000000000000000000000000000000000000000000000000000000002817effffffffffffffffffffffffffffffffffffffffffffffffffffffffffffff1916141515620020025780838381518110151562001fd157fe5b9060200101907effffffffffffffffffffffffffffffffffffffffffffffffffffffffffffff1916908160001a9053505b818060010192505062001f56565b829350505050919050565b60c060405190810160405280600073ffffffffffffffffffffffffffffffffffffffff16815260200160008152602001606081526020016000815260200160608152602001606081525090565b604051611713806200216383390190565b828054600181600116156101000203166002900490600052602060002090601f016020900481019282601f10620020bc57805160ff1916838001178555620020ed565b82800160010185558215620020ed579182015b82811115620020ec578251825591602001919060010190620020cf565b5b509050620020fc91906200213a565b5090565b606060405190810160405280600073ffffffffffffffffffffffffffffffffffffffff168152602001600081526020016000151581525090565b6200215f91905b808211156200215b57600081600090555060010162002141565b5090565b90560060806040526040516200171338038062001713833981018060405281019080805182019291906020018051820192919050505081600090805190602001906200004a9291906200013d565b508060019080519060200190620000639291906200013d565b506012600260006101000a81548160ff021916908360ff16021790555034600381905550600354600560003373ffffffffffffffffffffffffffffffffffffffff1673ffffffffffffffffffffffffffffffffffffffff168152602001908152602001600020819055503373ffffffffffffffffffffffffffffffffffffffff16600073ffffffffffffffffffffffffffffffffffffffff167fddf252ad1be2c89b69c2b068fc378daa952ba7f163c4a11628f55a4df523b3ef6003546040518082815260200191505060405180910390a35050620001ec565b828054600181600116156101000203166002900490600052602060002090601f016020900481019282601f106200018057805160ff1916838001178555620001b1565b82800160010185558215620001b1579182015b82811115620001b057825182559160200191906001019062000193565b5b509050620001c09190620001c4565b5090565b620001e991905b80821115620001e5576000816000905550600101620001cb565b5090565b90565b61151780620001fc6000396000f3006080604052600436106100fc576000357c0100000000000000000000000000000000000000000000000000000000900463ffffffff16806306fdde0314610101578063095ea7b31461019157806318160ddd146101f65780632004ffd91461022157806323b872dd1461022b578063313ce567146102b057806337e9c7fa146102e15780633eaaf86b1461034057806370a082311461036b57806395d89b41146103c25780639dc29fac146104525780639e35a8be146104b3578063a293d1e8146104ca578063a9059cbb14610515578063b5931f7c1461057a578063d05c78da146105c5578063dd62ed3e14610610578063e6cb901314610687575b600080fd5b34801561010d57600080fd5b506101166106d2565b6040518080602001828103825283818151815260200191508051906020019080838360005b8381101561015657808201518184015260208101905061013b565b50505050905090810190601f1680156101835780820380516001836020036101000a031916815260200191505b509250505060405180910390f35b34801561019d57600080fd5b506101dc600480360381019080803573ffffffffffffffffffffffffffffffffffffffff16906020019092919080359060200190929190505050610770565b604051808215151515815260200191505060405180910390f35b34801561020257600080fd5b5061020b610862565b6040518082815260200191505060405180910390f35b6102296108ad565b005b34801561023757600080fd5b50610296600480360381019080803573ffffffffffffffffffffffffffffffffffffffff169060200190929190803573ffffffffffffffffffffffffffffffffffffffff169060200190929190803590602001909291905050506109b3565b604051808215151515815260200191505060405180910390f35b3480156102bc57600080fd5b506102c5610b46565b604051808260ff1660ff16815260200191505060405180910390f35b3480156102ed57600080fd5b5061032a60048036038101908080359060200190929190803590602001909291908035906020019092919080359060200190929190505050610b59565b6040518082815260200191505060405180910390f35b34801561034c57600080fd5b50610355610bad565b6040518082815260200191505060405180910390f35b34801561037757600080fd5b506103ac600480360381019080803573ffffffffffffffffffffffffffffffffffffffff169060200190929190505050610bb3565b6040518082815260200191505060405180910390f35b3480156103ce57600080fd5b506103d7610bfc565b6040518080602001828103825283818151815260200191508051906020019080838360005b838110156104175780820151818401526020810190506103fc565b50505050905090810190601f1680156104445780820380516001836020036101000a031916815260200191505b509250505060405180910390f35b34801561045e57600080fd5b5061049d600480360381019080803573ffffffffffffffffffffffffffffffffffffffff16906020019092919080359060200190929190505050610c9a565b6040518082815260200191505060405180910390f35b3480156104bf57600080fd5b506104c8610d82565b005b3480156104d657600080fd5b506104ff6004803603810190808035906020019092919080359060200190929190505050611095565b6040518082815260200191505060405180910390f35b34801561052157600080fd5b50610560600480360381019080803573ffffffffffffffffffffffffffffffffffffffff169060200190929190803590602001909291905050506110b1565b604051808215151515815260200191505060405180910390f35b34801561058657600080fd5b506105af600480360381019080803590602001909291908035906020019092919050505061123a565b6040518082815260200191505060405180910390f35b3480156105d157600080fd5b506105fa600480360381019080803590602001909291908035906020019092919050505061125e565b6040518082815260200191505060405180910390f35b34801561061c57600080fd5b50610671600480360381019080803573ffffffffffffffffffffffffffffffffffffffff169060200190929190803573ffffffffffffffffffffffffffffffffffffffff16906020019092919050505061128f565b6040518082815260200191505060405180910390f35b34801561069357600080fd5b506106bc6004803603810190808035906020019092919080359060200190929190505050611316565b6040518082815260200191505060405180910390f35b60018054600181600116156101000203166002900480601f0160208091040260200160405190810160405280929190818152602001828054600181600116156101000203166002900480156107685780601f1061073d57610100808354040283529160200191610768565b820191906000526020600020905b81548152906001019060200180831161074b57829003601f168201915b505050505081565b600081600660003373ffffffffffffffffffffffffffffffffffffffff1673ffffffffffffffffffffffffffffffffffffffff16815260200190815260200160002060008573ffffffffffffffffffffffffffffffffffffffff1673ffffffffffffffffffffffffffffffffffffffff168152602001908152602001600020819055508273ffffffffffffffffffffffffffffffffffffffff163373ffffffffffffffffffffffffffffffffffffffff167f8c5be1e5ebec7d5bd14f71427d1e84f3dd0314c0f7b2291e5b200ac8c7c3b925846040518082815260200191505060405180910390a36001905092915050565b6000600560008073ffffffffffffffffffffffffffffffffffffffff1673ffffffffffffffffffffffffffffffffffffffff1681526020019081526020016000205460035403905090565b6108f6600560003373ffffffffffffffffffffffffffffffffffffffff1673ffffffffffffffffffffffffffffffffffffffff1681526020019081526020016000205434611316565b600560003373ffffffffffffffffffffffffffffffffffffffff1673ffffffffffffffffffffffffffffffffffffffff1681526020019081526020016000208190555061094560035434611316565b6003819055503373ffffffffffffffffffffffffffffffffffffffff16600073ffffffffffffffffffffffffffffffffffffffff167fddf252ad1be2c89b69c2b068fc378daa952ba7f163c4a11628f55a4df523b3ef346040518082815260200191505060405180910390a3565b60006109fe600560008673ffffffffffffffffffffffffffffffffffffffff1673ffffffffffffffffffffffffffffffffffffffff1681526020019081526020016000205483611095565b600560008673ffffffffffffffffffffffffffffffffffffffff1673ffffffffffffffffffffffffffffffffffffffff16815260200190815260200160002081905550610a8a600560008573ffffffffffffffffffffffffffffffffffffffff1673ffffffffffffffffffffffffffffffffffffffff1681526020019081526020016000205483611316565b600560008573ffffffffffffffffffffffffffffffffffffffff1673ffffffffffffffffffffffffffffffffffffffff16815260200190815260200160002081905550610ad683611332565b8273ffffffffffffffffffffffffffffffffffffffff168473ffffffffffffffffffffffffffffffffffffffff167fddf252ad1be2c89b69c2b068fc378daa952ba7f163c4a11628f55a4df523b3ef846040518082815260200191505060405180910390a3600190509392505050565b600260009054906101000a900460ff1681565b600080600080600086111515610b6e57600080fd5b8685600a0a8902811515610b7e57fe5b04925084600a0a8602915060028502600a0a905080828402811515610b9f57fe5b049350505050949350505050565b60035481565b6000600560008373ffffffffffffffffffffffffffffffffffffffff1673ffffffffffffffffffffffffffffffffffffffff168152602001908152602001600020549050919050565b60008054600181600116156101000203166002900480601f016020809104026020016040519081016040528092919081815260200182805460018160011615610100020316600290048015610c925780601f10610c6757610100808354040283529160200191610c92565b820191906000526020600020905b815481529060010190602001808311610c7557829003601f168201915b505050505081565b6000610ce5600560008573ffffffffffffffffffffffffffffffffffffffff1673ffffffffffffffffffffffffffffffffffffffff1681526020019081526020016000205483611095565b600560008573ffffffffffffffffffffffffffffffffffffffff1673ffffffffffffffffffffffffffffffffffffffff16815260200190815260200160002081905550610d3460035483611095565b600381905550600560008473ffffffffffffffffffffffffffffffffffffffff1673ffffffffffffffffffffffffffffffffffffffff16815260200190815260200160002054905092915050565b6000806000803073ffffffffffffffffffffffffffffffffffffffff163192507fdb5c17b17041a00e40c40ddc3406875c8676803e3a2a50a47f7c56109b8846536004805490506040518082815260200191505060405180910390a1600090505b60048054905081101561108f5760056000600483815481101515610e0357fe5b9060005260206000200160009054906101000a900473ffffffffffffffffffffffffffffffffffffffff1673ffffffffffffffffffffffffffffffffffffffff1673ffffffffffffffffffffffffffffffffffffffff1681526020019081526020016000205491507fbd89496239d1aac26b8dc32bbcb5b343e789c57225a62067cbc6a8b316048c1f600482815481101515610e9b57fe5b9060005260206000200160009054906101000a900473ffffffffffffffffffffffffffffffffffffffff1683604051808373ffffffffffffffffffffffffffffffffffffffff1673ffffffffffffffffffffffffffffffffffffffff1681526020018281526020019250505060405180910390a1600082111561108257610f2782600354856002610b59565b93506000841115610f39576001840393505b7f60340ff6b6843180b78e123fae24a7c30124a91d61fc3502600eec09e45b593b600482815481101515610f6957fe5b9060005260206000200160009054906101000a900473ffffffffffffffffffffffffffffffffffffffff16836003548688604051808673ffffffffffffffffffffffffffffffffffffffff1673ffffffffffffffffffffffffffffffffffffffff1681526020018581526020018481526020018381526020018281526020019550505050505060405180910390a160008411156110815760048181548110151561100f57fe5b9060005260206000200160009054906101000a900473ffffffffffffffffffffffffffffffffffffffff1673ffffffffffffffffffffffffffffffffffffffff166108fc859081150290604051600060405180830381858888f1935050505015801561107f573d6000803e3d6000fd5b505b5b8080600101915050610de3565b50505050565b60008282111515156110a657600080fd5b818303905092915050565b60006110fc600560003373ffffffffffffffffffffffffffffffffffffffff1673ffffffffffffffffffffffffffffffffffffffff1681526020019081526020016000205483611095565b600560003373ffffffffffffffffffffffffffffffffffffffff1673ffffffffffffffffffffffffffffffffffffffff16815260200190815260200160002081905550611188600560008573ffffffffffffffffffffffffffffffffffffffff1673ffffffffffffffffffffffffffffffffffffffff1681526020019081526020016000205483611316565b600560008573ffffffffffffffffffffffffffffffffffffffff1673ffffffffffffffffffffffffffffffffffffffff168152602001908152602001600020819055508273ffffffffffffffffffffffffffffffffffffffff163373ffffffffffffffffffffffffffffffffffffffff167fddf252ad1be2c89b69c2b068fc378daa952ba7f163c4a11628f55a4df523b3ef846040518082815260200191505060405180910390a36001905092915050565b6000808211151561124a57600080fd5b818381151561125557fe5b04905092915050565b60008183029050600083148061127e575081838281151561127b57fe5b04145b151561128957600080fd5b92915050565b6000600660008473ffffffffffffffffffffffffffffffffffffffff1673ffffffffffffffffffffffffffffffffffffffff16815260200190815260200160002060008373ffffffffffffffffffffffffffffffffffffffff1673ffffffffffffffffffffffffffffffffffffffff16815260200190815260200160002054905092915050565b6000818301905082811015151561132c57600080fd5b92915050565b6000806000600560008573ffffffffffffffffffffffffffffffffffffffff1673ffffffffffffffffffffffffffffffffffffffff16815260200190815260200160002054925060009150600090505b60048054905081101561140e578373ffffffffffffffffffffffffffffffffffffffff166004828154811015156113b557fe5b9060005260206000200160009054906101000a900473ffffffffffffffffffffffffffffffffffffffff1673ffffffffffffffffffffffffffffffffffffffff16141561140157600191505b8080600101915050611382565b6000151582151514156114e55760048490806001815401808255809150509060018203906000526020600020016000909192909190916101000a81548173ffffffffffffffffffffffffffffffffffffffff021916908373ffffffffffffffffffffffffffffffffffffffff160217905550507f9c12b8c530e38690083f6a015377e53f2d684153c65b58318cad7e8d0c9d6c8d84604051808273ffffffffffffffffffffffffffffffffffffffff1673ffffffffffffffffffffffffffffffffffffffff16815260200191505060405180910390a15b505050505600a165627a7a723058200abab2038bacf52fb387e668177dd46fd7a72c2ed3f44c985cc62b68285b74ca0029a165627a7a7230582031bce1ddcdab3720123366551c1d299109093a1116dc090527dbe730ac5e392d0029",
  "source": "pragma solidity ^0.4.24;\n\nimport \"./SafeMath.sol\";\nimport \"./REP.sol\";\n\ncontract SemadaCore is SafeMath {\n\n  uint256 public proposalIndex;\n  uint256 public tokenNumberIndex;\n\n  mapping(uint256 => address) erc20SymbolAddresses;\n\n  struct Vote {\n    address from;\n    uint256 rep;\n    bool vote;\n  }\n\n  struct Pool { \n    address from;  \n    uint256 tokenNumberIndex;\n    string name; \n    uint256 timeout;  \n    string evidence;  \n    Vote[] votes;\n  }\n\n  mapping(uint256 => Pool) validationPool;\n  \n  event NewProposalCreated(uint256 proposalIndex, uint256 timeout);\n  event NewDaoCreated(uint256 tokenNumberIndex);\n  event SemadaInfo(string message);\n  event SemadaInfoUint(uint message);\n  event SemDistributed(address to, uint256 value);\n  event ProposalStatus(string status, uint256 yesRepStaked, uint256 noRepStaked);\n  event SafeMessage(string msg, uint a, uint b, uint c, uint precision, uint balance);\n\n  function getTokenAddress(uint256 _tokenNumberIndex) \n  public view returns (address tokenAddress){\n    \n    return erc20SymbolAddresses[_tokenNumberIndex];\n  }\n\n  function getProposalVotes(uint256 _proposalIndex) view \n  public returns (uint, uint256, uint256, uint256) {\n    \n    Pool memory pool = validationPool[_proposalIndex];\n    \n    uint status = 1;\n    uint256 totalRep = 0;\n    uint256 totalYesRep = 0;\n    uint256 noSlashRep = 0;\n    Vote[] memory votes = pool.votes;\n    \n    for(uint i = 0; i < votes.length; i++){\n      totalRep = safeAdd(totalRep, votes[i].rep);\n      if(votes[i].vote){\n        totalYesRep = safeAdd(totalYesRep, votes[i].rep);\n      } else if(!votes[i].vote && votes[i].from == 0) {\n        noSlashRep = votes[i].rep;\n      }\n    }\n    \n    // TODO: handle timeout case\n    \n    if(now >= pool.timeout){\n      if(totalYesRep >= safeDiv(totalRep, 2)){\n        status = 2;\n        \n        //reset as we aren't going to slash rep if YES wins\n        noSlashRep = 0;\n      } else {\n        status = 3;\n        totalRep = totalRep - noSlashRep;\n      }\n    } else {\n      if(totalYesRep >= safeDiv(totalRep, 2)){\n        //reset as we aren't going to slash rep if YES wins\n        noSlashRep = 0;\n      } else {\n        totalRep = totalRep - noSlashRep;\n      }\n      \n      status = 1;\n    } \n        \n    return (\n      status,\n      totalYesRep,\n      totalRep - totalYesRep,\n      noSlashRep\n      );\n  }\n  \n  function getVote(uint256 _proposalIndex, uint256 _voteIndex) view\n  public returns (address, uint256, bool) {\n    return (validationPool[_proposalIndex].votes[_voteIndex].from,\n      validationPool[_proposalIndex].votes[_voteIndex].rep,\n      validationPool[_proposalIndex].votes[_voteIndex].vote);\n  }\n\n  function joinDao(uint256 _tokenNumberIndex) \n  public payable {\n\n    proposalIndex = safeAdd(proposalIndex, 1);\n      \n    REP rep = REP(erc20SymbolAddresses[_tokenNumberIndex]);\n    rep.mintToken.value(msg.value)();\n    \n    newProposalInternal(\n      proposalIndex,\n      _tokenNumberIndex, \n      \"Join DAO\",\n      \"Join DAO\",\n      msg.sender, \n      msg.value);\n  }\n  \n  function bytes32ToString (bytes32 data) internal pure returns (string) {\n    bytes memory bytesString = new bytes(32);\n    for (uint j=0; j<32; j++) {\n      byte char = byte(bytes32(uint(data) * 2 ** (8 * j)));\n      if (char != 0) {\n          bytesString[j] = char;\n      }\n    }\n    return string(bytesString);\n  }\n\n  function uintToBytes(uint v) pure returns (bytes32 ret) {\n    if (v == 0) {\n        ret = '0';\n    }\n    else {\n        while (v > 0) {\n            ret = bytes32(uint(ret) / (2 ** 8));\n            ret |= bytes32(((v % 10) + 48) * 2 ** (8 * 31));\n            v /= 10;\n        }\n    }\n    return ret;\n  }\n\n \n  function createDao(string _tokenName) \n  public payable {\n    \n    tokenNumberIndex = safeAdd(tokenNumberIndex, 1);\n    \n    string memory _tokenSymbol = \n      bytes32ToString(uintToBytes(tokenNumberIndex));\n      \n    address _tokenAddress = \n      (new REP).value(msg.value)(_tokenSymbol, _tokenName);\n      \n    erc20SymbolAddresses[tokenNumberIndex] = _tokenAddress;\n    \n    proposalIndex = safeAdd(proposalIndex, 1);\n    \n    emit NewDaoCreated(tokenNumberIndex);\n        \n    newProposalInternal(\n      proposalIndex,\n      tokenNumberIndex, \n      _tokenName, \n      _tokenName,\n      msg.sender,\n      msg.value);    \n  }\n  \n  function newProposal(\n    uint256 _tokenNumberIndex,\n    string _proposalName,\n    string _proposalEvidence\n    ) public payable {\n      \n    proposalIndex = safeAdd(proposalIndex, 1);\n\n    REP rep = REP(erc20SymbolAddresses[_tokenNumberIndex]);\n    rep.mintToken.value(msg.value)();\n    \n    newProposalInternal(\n      proposalIndex,\n      _tokenNumberIndex,\n      _proposalName,\n      _proposalEvidence,\n      msg.sender,\n      msg.value);\n  }\n  \n  function newProposalInternal(\n    uint256 _proposalIndex,\n    uint256 _tokenNumberIndex, \n    string _proposalName, \n    string _proposalEvidence,\n    address _from,\n    uint256 _value) internal {\n    \n    //setting timeout to 180 seconds from now\n    uint256 _timeout = now + 180;\n    emit NewProposalCreated(_proposalIndex, _timeout);\n\n    Pool storage pool = validationPool[_proposalIndex];\n    pool.from = _from;\n    pool.tokenNumberIndex = _tokenNumberIndex;\n    pool.name = _proposalName;\n    pool.timeout = _timeout;\n    pool.evidence = _proposalEvidence;\n\n    voteInternal(_proposalIndex, _from, (_value / 2), true);\n    \n    voteInternal(_proposalIndex, 0, (_value / 2), false);\n  }\n  \n  function vote(\n    uint256 _proposalIndex,\n    bool _vote,\n    uint _rep\n    ) public {\n    REP rep = REP(erc20SymbolAddresses[validationPool[_proposalIndex].tokenNumberIndex]);\n    rep.transferFrom(msg.sender, this, _rep);\n    \n    voteInternal(\n      _proposalIndex,\n      msg.sender,\n      _rep,\n      _vote\n    );\n      \n  }\n  \n  function voteInternal(\n    uint256 _proposalIndex, \n    address _from,\n    uint256 _value,\n    bool _vote\n    ) internal {\n    \n    Pool storage pool = validationPool[_proposalIndex];\n      \n    Vote memory newVote = Vote({from:_from, rep:_value, vote:_vote});\n    \n    pool.votes.push(newVote);\n  }\n  \n\n  function distributeRep(uint256 _proposalIndex,\n    uint256 _totalRepStaked, \n    uint256 _yesRepStaked, \n    uint256 _noRepStaked,\n    uint256 _noSlashRep) public {\n      \n    Pool memory pool = validationPool[_proposalIndex];\n    address tokenAddress;\n    tokenAddress = erc20SymbolAddresses[pool.tokenNumberIndex];\n    Vote[] memory votes = pool.votes;\n    \n    REP rep = REP(tokenAddress);\n    uint256 noRepToBurn;\n    \n    //slash the no REP if NO wins.\n    if(_noSlashRep > 0) {\n      emit SemadaInfo(\"burning rep\");\n      uint bal = rep.burn(this, _noSlashRep);\n      emit SemadaInfoUint(bal);\n    }\n  \n    for(uint j = 0; j < votes.length; j++){\n      uint256 betAmtWon;\n      if(_noSlashRep == 0 && votes[j].vote){\n        \n        betAmtWon = safePercentageOf(votes[j].rep, \n          _yesRepStaked, _totalRepStaked, 2);\n          \n        rep.transferFrom(this, votes[j].from, betAmtWon);\n      } else if (_noSlashRep > 0\n          && !votes[j].vote \n          && votes[j].from != 0){\n        \n        betAmtWon = safePercentageOf(votes[j].rep, \n          _noRepStaked, _totalRepStaked, 2);\n          \n        rep.transferFrom(this, votes[j].from, betAmtWon);\n      }\n    }\n\n  }\n  \n  function distributeSem(uint256 _tokenNumberIndex) public {\n    address tokenAddress = erc20SymbolAddresses[_tokenNumberIndex];\n    REP rep = REP(tokenAddress);\n    emit SemadaInfo(\"DIST SEM\");\n    rep.distributeSem();\n  }\n}",
  "sourcePath": "/Users/josh/Projects/Node/semada-demo/contracts/SemadaCore.sol",
  "compiler": {
    "name": "solc",
    "version": "0.4.24+commit.e67f0147.Emscripten.clang"
  },
  "schemaVersion": "2.0.1",
  "updatedAt": "2018-10-31T04:52:07.902Z"
}